:10000000300E0020DD2D0000D92D0000D92D00007C
:1000100000000000000000000000000000000000E0
:10002000000000000000000000000000D92D0000CA
:100030000000000000000000D92D0000D92D0000B4
:10004000D92D0000D92D0000D92D0000D92D000098
:100050002D010000D92D0000D92D00000000000066
:10006000D92D0000A11B0000B11B00000000000002
:10007000C5150000C1180000D1180000D92D0000DE
:10008000D92D0000D92D0000D92D000010B5064C47
:100090002378002B07D1054B002B02D0044800E049
:1000A00000BF0123237010BD1000002000000000DD
:1000B00004330000084B10B5002B03D00749084853
:1000C00000E000BF07480368002B00D110BD064BBD
:1000D000002BFBD09847F9E7000000001400002037
:1000E00004330000043300000000000070B500205D
:1000F000084B98470500084CFA218900A047074B98
:10010000186007492800A047064B18600522064BD7
:100110001A6070BD692B0000AD2E000000000020A9
:1001200040420F000400002010E000E070B5002203
:10013000104B1A70002310491F25104E0D4C0AE079
:100140000D4908E023780133DBB223700F2B10D860
:1001500000211F2BF4D92800184001228240086991
:100160001042EFD00A619B009B59002BEAD09847C0
:10017000E8E770BDA408002000180040A80800208F
:10018000044A137802210B43137053785BB2002B9F
:10019000FBDB70470018004000B583B0124A93693A
:1001A00040210B43936101A900230B7005200F4BE5
:1001B000984705200E4B98470E4A137801210B43B0
:1001C000137053785BB2002BFBDB0B4B19004031F3
:1001D000002204C39942FCD11022084B1A60084B3C
:1001E000984703B000BDC04600040040812C0000C9
:1001F000F52B000000180040A808002000E100E0F6
:100200008101000000B583B001AB80221A700A782A
:100210005A704A789A708A78DA701900014B9847B8
:1002200003B000BD792D000001680722CB691A4296
:10023000FCD17047F0B5CE46474680B583B0070085
:100240000D001600396008007B4B98477B4A116A05
:10025000841C0123A3400B43136201A9337B0B7061
:100260000E30C4B22000764B98472000754B98475B
:10027000307B0021744B98472B681C209B0704D5CA
:1002800003B00CBC90469946F0BD2B681738DB07CD
:10029000F6D43868684B9846984704006B496C4B15
:1002A0009847A4006B4BE75000233B767B760022F7
:1002B00091467B83BB8325224946B9543B62143364
:1002C0002B603C682000C047804680236A4613703C
:1002D0006B464A465A7001236A4693706B464A46FB
:1002E000DA70F069356A002877D06B4618700223FF
:1002F0006A465370000CC0B26946574B9847002DB0
:1003000070D06B461D7002236A465370280CC0B231
:100310006946514B9847B38AFB80F38A3B81337E11
:100320008022002B04D14D4B9B789B07DB0FDA0119
:10033000B16833690B4313432422B25C002A02D014
:100340008022D2051343B26A13432C22B25C002AE6
:1003500003D180229204914202D1802212051343DC
:100360002D22B25C002A02D08022120413432E22D6
:10037000B25C002A02D08022D203134322681343C6
:10038000236080235B00636045460E35E8B2344B42
:100390009847070073689846FA21C90033685943A3
:1003A000304BC818C019304B9847050080239B0478
:1003B000B2689A421CD04020FF2D00D960E7002689
:1003C0000020FF232B40360633430004FF22120493
:1003D00010400343E360002052E700212000234B3C
:1003E000984782E701212000204B9847050088E7C5
:1003F000FA21890043464B4398467800590041440E
:10040000194B9847461E002E0BD041463800164B1C
:1004100098470238801BFF2D0BD8FF28D1D94020E8
:100420002EE743465900481EC0190F4B9847013824
:10043000F1E7402024E7C046251B000000040040EF
:10044000812C0000F52B0000591A000099080000CB
:100450004D1B0000F4080020792D00000020004111
:100460009D2C0000BF96B8FFAD2E0000A51A00001D
:1004700003681A7E920707D502221A765B8B9B07C8
:100480004120DB17184070475A8B520706D5596830
:10049000C02292020A435A601820F4E70020F2E7D3
:1004A00030B50268002301240225117E21420BD1C0
:1004B000117E294206D101339BB201899942F4D8B9
:1004C000122002E0002000E0002030BD10B50468DA
:1004D00062688023DB02134363606162024B9847CA
:1004E0000123237610BDC046A1040000F0B5DE460E
:1004F00057464E464546E0B583B006008946056836
:100500004C882B681B01DB0F9A464B7A002B2BD1B2
:100510006B68584A13406B604B461B7A002B27D1FF
:100520004B461B885B004A46527A920313430122D2
:1005300013436B623000504B984701905346002B99
:1005400003D04B465B88012B3BD06B68494A134074
:100550006B60019B002B3AD0019803B03CBC9046E5
:100560009946A246AB46F0BD897A444B9847CFE7FF
:100570004B461B885B004A46527A92031343802203
:10058000120213436B6230003B4B984701906B683B
:10059000384A13406B600028DED13000384B984752
:1005A00001900028D8D14B461B881B0A78221343A0
:1005B0005B004A46527A920301210A4313436B625D
:1005C000B8E76A688023DB0213436B60C1E7300041
:1005D0002B4B984701900028BED1013CA4B2804625
:1005E000284B9B4615E0012C20D03000264B984725
:1005F00043465F1CBFB22823EB5C4A465268414623
:10060000535430001C4B9847013CA4B2002815D12C
:10061000B8465C4514D06B8B9B0627D5F37A002B2C
:10062000E3D05346002BDED1002CDED16A68802354
:10063000DB0213436B60013CA4B2EAE7B8460190C9
:10064000B37A002B09D130000F4B98472823EA5C7E
:100650004B465B6841465A547EE730000A4B984748
:100660006A68C0239B0213436B60ECE7412301934C
:1006700072E7C046FFFFFBFFA1040000CD040000AD
:1006800071040000FFFF000029020000F0B5DE4603
:1006900057464E464546E0B583B006000F00056854
:1006A0004C88324B98477B7A002B1DD16B68304ABF
:1006B00013406B603B7A002B1BD03B885B007A7A3F
:1006C000920313438022120213436B623000294BC2
:1006D00098470190002813D0019803B03CBC904685
:1006E0009946A246AB46F0BDB97A3000224B9847F6
:1006F000DCE73B885B007A7A920313436B62E5E7A1
:1007000030001E4B9847031E0190E5D1A0460024FF
:1007100020339946154B9B46164B9A46444515D0B7
:100720006B8B4A4613421DD03000D8477B681A5D58
:100730002823EA543000D047002806D16B8B0134BF
:100740005B07EBD51E23019300E00190B37A002BE9
:10075000C2D03000054B98476A68C0239B02134300
:100760006B60B9E741230193B6E7C0462902000058
:10077000FFFFFBFFA1040000CD0400007104000096
:1007800010B5838B9BB20522002B01D0100010BD49
:1007900001338372C372024B98470200F6E7C046EA
:1007A000ED04000010B5838B9BB20522002B01D015
:1007B000100010BD01338372C372024B98470200D0
:1007C000F6E7C0468D06000001680722CB691A4291
:1007D000FCD1704770B5040006683268458B838B86
:1007E000ED1AADB2838B013B9BB2838313011DD500
:1007F000C37A002B03D0838B9BB2012B10D0A38B29
:100800009BB2002B02D1A37A002B1CD12000124BEB
:100810009847236A5D192823F35CDBB22B7070BD07
:1008200072688023DB0213437360E8E7C37A002B0E
:10083000E5D0838B9BB2002BE1D172688023DB0271
:1008400013437360DBE72000034B98477268C023B3
:100850009B0213437360D9E7C907000070B5040019
:1008600005686B8B5B0703D51E222523C25470BD20
:10087000468B838BF61AB6B2838B013B9BB2838384
:10088000044B9847236A9E193378DBB22822AB5475
:10089000EDE7C046C907000070B58000754BC4582D
:1008A00025682B681B01DA0F637E267E1E40638B52
:1008B0009BB2002B03D1A38B9BB2002B23D1638B64
:1008C0009BB2002B08D0A38B9BB2002B04D1253305
:1008D000E35C052B00D16DE0638B9BB2002B24D031
:1008E000A38B9BB2002B20D06B8B9B0600D581E0A5
:1008F000002A04D0A38B9BB2012B00D17AE04122C5
:100900002523E25411E02B7EDB0707D501232B764C
:100910006B8B9B072ED541222523E254A38B9BB2E0
:1009200063832523E35C052B38D0638B9BB2002BBC
:1009300007D0A38B9BB2002B03D12533E35C052B9F
:1009400064D02523E35C052B13D02523E35C002B27
:100950000FD003232B7500236383A3832533E35C2C
:10096000412B03D0A37A002B00D075E0730700D58C
:100970007BE070BD6B8B5B07D0D518222523E2543A
:100980000023A383A37A002BC8D020003A4B9847BA
:100990006A68C0239B0213436B60BFE71F33E35CAD
:1009A000002B03D02000354B9847BEE72000344B86
:1009B0009847BAE71F33E35C002B00D08CE7033382
:1009C0002B750023638325330022E254A37A002B86
:1009D00007D101232B76F307A7D5E36820009847BA
:1009E000A3E72000244B98476A68C0239B02134367
:1009F0006B60F0E72423E35C002B03D12000204B45
:100A0000984792E720001D4B98478EE71F33E35C21
:100A1000012B96D12B7E9B0701D502232B76032336
:100A20002B750023638325330022E254B30703D5DB
:100A30002423E35C012B0BD0F30700D481E72423AC
:100A4000E35C002B00D07CE7E3682000984778E760
:100A500023692000984774E72000074B98476A688D
:100A6000E023DB0213436B6080E763692000984753
:100A70007FE7C046F4080020C9070000D507000042
:100A80005D080000F0B5DE4657464E464546E0B5E7
:100A900091B005000C00160029600800BC4B984777
:100AA000020023680520DB0706D511B03CBC904648
:100AB0009946A246AB46F0BD236817309B07F4D495
:100AC000B449086A971C0123BB4003430B620FA97A
:100AD0002D27F35D0B700E32D3B202931800AE4B8C
:100AE00098470298AD4B9847F05D0021AC4B984772
:100AF000F37A6B712423F35CAB712523F35CEB7108
:100B0000F37E2B72337F6B722B6898461800A04BD4
:100B100098470E3000220E2306A98C4663441A80A3
:100B2000328A02928023DB019A4200D19EE00FD9E3
:100B3000C023DB01029A9A4200D192E080231B027B
:100B40009A4200D01FE1032306930023079308E095
:100B500080239B019A4200D015E1102306930F3B9E
:100B6000079333680593F368039373690493337EA3
:100B70009B462623F35C9A4673689946002B00D166
:100B8000A0E080235B05994500D184E0737E002BB3
:100B900002D0B37E424693732A68029FD369002B2A
:100BA000FCD10E3306AA944663441B8842469381C7
:100BB000059B039A1343049A13434A4613431F4366
:100BC0005B461B021F4353465B071F432723F35C0F
:100BD000002B01D104331F43737E9B02327F5202EC
:100BE0001343727F120213432422B25C5204134354
:100BF0002522B25C12041343B17AF27A11431943ED
:100C00003389FF2B00D181E080225204174319431E
:100C10002C23F35C002B03D1624B9B789B0701D5FF
:100C200080231F432A68D369002BFCD143465960B7
:100C30002A68D369002BFCD143461F600EAB80228B
:100C40001A7000225A70DA709A70336B0A93736BC1
:100C50000B93B36B0C93F36B02930D9300270AAEC7
:100C600063E008230693073B07937AE7336805930D
:100C7000F368039373690493337E9B462623F35CE6
:100C80009A4673689946002B18D080235B059945D6
:100C900001D0002025E02723F35C002B00D075E76E
:100CA000336A1F00C0B2404B984701000E2206ABCA
:100CB0009C46624438003D4B984712E00823069357
:100CC000002307932723F35C002B0ED0069B009391
:100CD000079B0E2206A98C466244B16A306A344FE3
:100CE000B847002800D0E0E650E7336A1F00C0B2E2
:100CF0002D4B98470100069B0093079B0E2206A8E8
:100D00008446624438002A4FB847EAE7F37E002B56
:100D100000D17DE78023DB041F4379E72000254BCA
:100D2000984707E00137042F0DD0F9B2BB0098595E
:100D30000028F3D0431CF5D00EA90870000CC0B2F7
:100D40001D4B9847EEE70023EB602B616B61AB61B5
:100D5000EB612B62AB626B620022EB85AB853033BB
:100D6000EA540133EA540133EA540133EA5428685F
:100D7000074B984704001149114B9847A400114BA9
:100D8000E550002091E61023069300230793E8E640
:100D9000251B000000040040812C0000F52B000002
:100DA000591A0000002000419D2C00009B190000F2
:100DB000C5190000A51A0000792D0000B50E00002D
:100DC0004D1B0000F4080020C2791C23002A01D129
:100DD00018007047C28D92B2173B002AF8D1036801
:100DE000DA69002AFCD1198502211A7E0A42FCD058
:100DF0000023EDE7F0B5CE46474680B583B0050049
:100E000001911720002A04D103B00CBC90469946EA
:100E1000F0BDEB790530002BF6D02C68E369002B90
:100E2000FCD1013A93B29946002601271F4B984600
:100E300011E0731C9BB2019A915D6A79012A17D067
:100E400089B21E0028001A4B98474B46013B9BB2C3
:100E50009946434513D0237E3B42EAD1134B227E71
:100E60003A42E6D1012B19D0013B002BF7D1E0E744
:100E70000236B6B2019AD35C1B021943E2E7237E25
:100E80009B070DD4094B0221227E0A420AD1012B75
:100E90000AD0013B002BF7D10020B5E71220B3E7C1
:100EA0000020B1E70020AFE71220ADE7FFFF000010
:100EB000C90D0000F8B58000624BC5582C68E36985
:100EC000002BFCD1237EA67D1E403023EB5C31221B
:100ED000AF5C1F40F30722D5EB8D9BB2002B1CD0DB
:100EE000AA6A1378DBB2511CA962697901290ED074
:100EF0009BB2DB05DB0D2385EB8D013B9BB2EB85C4
:100F0000002B0CD1013323750133A37507E0517811
:100F100009020B430232AA62EBE701232375B307F0
:100F200006D50223237500223133EA54FB071AD475
:100F3000730765D5AB8D9BB2002B5FD0638BDBB2A3
:100F40001A0714D43F221340002B34D09A0711D52E
:100F50001A223223EA54303B63837B0750D52800A2
:100F60006B6998474CE02800EB689847E0E7372228
:100F70001340E9E75A0705D51E223223EA542E3BD7
:100F80006383EAE7DA0705D513223223EA54313BBB
:100F90006383E2E7DA0605D542223223EA54223B94
:100FA0006383DAE720221A42D7D021323223EA546F
:100FB000123B6383D1E7238DDB05DB0DDAB2696A6F
:100FC0000A706A6A511C69626979012910D0AB8D77
:100FD000013B9BB2AB85002B12D104332375002259
:100FE0002E33EA54BB070BD528002B69984707E03E
:100FF0001B0A53706B6A01336B62E8E704232375A5
:10100000F30604D5102323752376FB060ED4B3060E
:1010100004D52023237523763B070BD4330704D54F
:10102000082323752376BB0608D4F8BD2800EB6996
:101030009847ECE72800AB699847EFE72B6A280050
:101040009847F2E7F40800200020704730B504000C
:101050001720032900D930BD114DAA42FBD82068C2
:10106000002B10D0802464028C40036B1C42FCD106
:10107000802424038C4083681C42FCD11C318900ED
:101080000A500020E7E7802464008C4083681C42FB
:10109000FCD11031890041184A600020DBE7C046CE
:1010A000FFFFFF00002303604C4A42608372C3725B
:1010B000037343720372C361036243628362037505
:1010C00043758375C37503764376037443748374E1
:1010D000C3742C228354013283540132835401326D
:1010E00083540132835401328354013283540132D8
:1010F00083540132835401328354013283540132C8
:1011000083540132835401328354013283540132B7
:1011100083540132835401328354013283540132A7
:101120008354013283540132835401328354013297
:101130008354013283540132835401328354013287
:101140008354013283540132835401328354013277
:101150008354013283540132835401328354013267
:101160008354013283540132835401328354013257
:101170008354013283540132835401328354013247
:101180008354413283548365836701328354C3653A
:10119000C3670132835403661A3A83501B32835467
:1011A0004366173A8350183283548366143A835047
:1011B00015328354C366113A835012328354036745
:1011C0000E3A83500F32835443670B3A8350012108
:1011D0000C328154013283547047C046FFFFFF0038
:1011E000F0B5DE4657464E464546E0B58DB00600A2
:1011F0000C0015000800CD4B98470300CC490A6A43
:10120000202002430A6222680438920706D50DB0F6
:101210003CBC90469946A246AB46F0BD22680127E9
:101220001740F4D1C34A053829689142EFD869685C
:101230009142ECD8E969914200D98BE1296A914247
:1012400000D989E1696A914200D987E1A96A91428E
:1012500000D985E12A7C013A5042504102060192B0
:101260006A7C012A31D0AA7C012A34D0EA7C012A86
:1012700037D0A122AA5C002A04D080221201019951
:10128000114301912A7A511E8A41920003926A7A8F
:10129000012A2CD03522AA5C032A00D962E12C2134
:1012A000695C0F2900D95DE1287B0490E87A0590FC
:1012B0002D208246AA4400200297844606960E00FE
:1012C000A0465446A946079347E08022920401991C
:1012D00011430191C7E78022D20401991143019182
:1012E000C4E780221205019911430191C1E70399D6
:1012F00011430391CEE79202C0252D012A403243CB
:101300000D7903262E40324355462A434E79760105
:10131000602535402A438D792D02C026B600354020
:101320002A43CD792D03E026F60135402A431043A8
:1013300003431F4308AB624608201B189F50042A32
:1013400028D08A7C032A00D90CE14E7A0A3404237F
:101350009A46D4440F2E00D904E13606F0231B052B
:101360001E40210025782D04FF231B041D40AA46A2
:1013700063788020002B00D102988F780823002FFB
:1013800000D1029BCF78BB4610275D46002DB2D11D
:10139000029FB0E7069E44464D46079B48465030A4
:1013A00049464131002280277F02BC460127B946C9
:1013B0000227FF37BA461F001300A0463C0007E093
:1013C000574697403B43013201300231082A0ED084
:1013D0000778002F02D0674697403B430F78002FD5
:1013E000F1D0022FECD04F4697403B43EBE7220071
:1013F0004446984613006A7E120130211140287E2F
:101400000722024011430022802040020F0002E028
:101410000132042A07D0A918097D0029F8D001005B
:1014200091400F43F4E7B946321D300034300021BB
:1014300002C29042FCD100227263B2639B003E4A1A
:101440009E503460A023EA5C643BF25409A9AB7A55
:101450000B701120394B98471120394B98472F00BA
:1014600098372E00583678239A46AA44773B9B46F5
:10147000230054469A4603E001370436B44214D0A0
:101480003B78002BF8D008AB5A469A70002308AA84
:10149000D37013002022B21812781A705A465A706C
:1014A00030781900274B9847E6E75446049B1B0306
:1014B000059A12021343019A134323600422A3687E
:1014C0001A42FCD1FF2323710422A3681A42FCD1E3
:1014D0006B461B7B63710A9BE3600B9B2361434656
:1014E000A361194AA3681342FCD14B46E36310225F
:1014F000A3681A42FCD12B686363144AA3681342A1
:10150000FCD16B6823641C350021114802008A401D
:10151000A3681A42FCD104CD0B0010339B00E318E2
:101520005A6001310429F1D1002070E64910000011
:1015300000040040FFFFFF00E8080020812C0000AD
:10154000F52B0000792D000040000200800004000F
:101550000001080017205AE6172058E6172056E623
:10156000172054E6172052E610B53C23C35C014C0B
:10157000A04710BD4D100000F0B5C64600B5800074
:101580000E4BC7583B68DE6ABB6B7A6B13401E403C
:1015900000240B4B984602E00434302C0AD043461A
:1015A000E5583542F8D03B195B68380098473B68EE
:1015B000DD62F1E704BC9046F0BDC046E8080020BB
:1015C0003432000010B50020014B984710BDC046D2
:1015D00079150000064B984208D0064A0023904235
:1015E00001D0180070470133DBB2FAE70023FBE7B4
:1015F00000180042001C0042F0B585B004000D0048
:1016000016000800824B9847070003AB12221A709D
:101610005A7002AB2E321A8040325A800023A360E7
:10162000E36023616361237663768200794BD45053
:101630002560B378082B06D023712B880520DB07A3
:1016400005D505B0F0BD1720FA07FAD4F4E7EB7B17
:101650001730DB06F5D42B889B07F2D4337C002BA4
:1016600000D07AE0337F002B00D082E06A49086A1C
:101670007A0002ABD35A03430B62B378082B00D134
:1016800087E033786A46137003ABDF5D6946380044
:10169000624B98473800624B98473189B3880B43B7
:1016A000B178B279114319437378002B02D08023AB
:1016B0001B0119432268D37B5BB2002BFBDB298023
:1016C000717B4B1E99418900B37B002B01D0012314
:1016D00019432268D37B5BB2002BFBDBFF232B710A
:1016E000002905D02268D37B5BB2002BFBDB69713C
:1016F000B17AF37A002B01D010231943337B002BEE
:1017000001D0202319432268D37B5BB2002BFBDB83
:10171000A9712268D37B5BB2002BFBDB2379042BFE
:101720003FD0082B5ED01720002B00D089E7D37B59
:101730005BB2002BFBDB338D2B822268D37B5BB249
:10174000002BFBDB738D2B832268D37B5BB2002BDA
:10175000FBDBB38D6B83002073E701A901238B7042
:101760000022CA70327E0A704B70307D2D4B984734
:1017700078E701A901238B700022CA702432B218C5
:1017800012780A704B701F33F3181878254B98475E
:101790006CE7086A7A1C520002ABD35A03430B620F
:1017A0006FE7D37B5BB2002BFBDB2823F35C2B744E
:1017B0002268D37B5BB2002BFBDB2923F35C2B7508
:1017C0002268D37B5BB2002BFBDB2A23F35C2B76F6
:1017D0002268D37B5BB2002BFBDB2B23F35C6B76A5
:1017E00000202EE7D37B5BB2002BFBDBB36A2B61BF
:1017F0002268D37B5BB2002BFBDBF36AAB61226810
:10180000D37B5BB2002BFBDB336BEB61002018E773
:10181000D5150000EC08002000040040812C0000D9
:10182000F52B0000792D0000931C9B001950022A13
:1018300009D0032A0CD0012393401A00037E1343DE
:10184000037600207047037E102213430376F8E7E7
:10185000037E202213430376F3E7000070B5800077
:10186000164BC45823689D7B227E637E13401D4027
:10187000EB0706D4AB070BD4EB0610D4AB0615D49C
:1018800070BD2000A3689847012322689373F1E795
:101890002000E3689847022322689373ECE7200056
:1018A00023699847102322689373E7E72000636950
:1018B0009847236820229A73E2E7C046EC0800208C
:1018C00010B50020014B984710BDC0465D180000C0
:1018D00010B50120014B984710BDC0465D180000AF
:1018E000F0B5DE4657464E464546E0B587B08046E1
:1018F000049116001F000022002300218B463F2484
:1019000001202100009601975C460394444605940B
:1019100013E02024641A0500E540A84614E0009C6A
:10192000019D121BAB415C464D462C43A346039CD4
:1019300045462C430394013925D3202464420C19D5
:10194000E7D40500A540A84604008C40A1469218A3
:101950005B4114001D00059E4F463E40B446049E68
:1019600047463E40B246664657463E4303D00600D1
:10197000264332002B00009C019D9D42DBD8CED136
:101980009442D8D8CBE7039B5846190007B03CBC1B
:1019900090469946A246AB46F0BD10B54908402393
:1019A0000024814202D2180010BD1C00091A631CD9
:1019B0009BB28842F9D94023FF2CF4D8148000232D
:1019C000F1E70000F0B583B00F00160008AA117807
:1019D00004004C434022BC4202D9100003B0F0BDC9
:1019E000002B14D1020008000021194CA04701006F
:1019F0003A0000230020174CA04700220123121AAE
:101A00008B41120C1B041A4332800022E5E70022AE
:101A1000012BF9D10A00002300210D4CA047020040
:101A20000B0000920193380000210A4CA0470500EA
:101A300080239B0140229842CFD8790FF800009A6A
:101A4000019BA047EA00821AD2B252032A43DBE785
:101A500099310000E118000010B582B004000E4B6F
:101A60001B78002B07D0002905D10B4B5B788342F4
:101A700010D01D200CE001A90C700D20074B9847D9
:101A80000D20074B9847044B5C7001221A70002010
:101A900002B010BD0020FBE72C000020812C0000CC
:101AA000F52B0000154B984204D0154B984211D0ED
:101AB00000207047012907D000291BD0022905D03A
:101AC000032905D00020F4E70E48F2E70E48F0E7BE
:101AD0000E48EEE7012907D000290DD0022905D0D4
:101AE000032905D00020E4E70948E2E70948E0E7D8
:101AF0000948DEE70948DCE70948DAE70008004260
:101B0000000C004202000F0003000800030009005F
:101B100002001F00020018000200190002000E005F
:101B200002001E00064B984208D0064A002390424D
:101B300001D0180070470133DBB2FAE70023FBE75E
:101B400000080042000C00427047000030B5094B0D
:101B50001B78002B0AD1084C084D2560084B002249
:101B60001A6065605A600132024B1A708000024BA5
:101B7000C15030BD2E00002030000020491B000065
:101B8000F408002010B582B001AC092323700133A2
:101B90006370024B9847205602B010BD251B000011
:101BA00010B5024B1B680020984710BD3000002084
:101BB00010B5024B5B680120984710BD3000002033
:101BC00070B582B0019000918C4B1A68D317D01871
:101BD00058408B4B1B68C118019CA34222DC009823
:101BE000834212DB009882420FDC009A002A04DB59
:101BF000009A9B1A834A13600DE0009AD11752187D
:101C00004A40D3187F4A136005E0009A934206DAEF
:101C100000227C4B1A607B4B186802B070BD794B78
:101C20001960F8E7009CA24221DB0198834214DB93
:101C30000198824211DC019A002A05DB019A9B1A65
:101C40005918704B1960E6E7019AD01712184240F4
:101C5000D31859186B4B1960DDE7009A934202DAEA
:101C6000684B1960D7E74900664A1160D3E7019CC9
:101C7000A24225DB009CA34216DB009CA24213DC9F
:101C8000009B002B06DB009BC018490041185D4BF0
:101C90001960C0E7009BDA179B185340C01A49002F
:101CA0004118584B1960B6E7009A934203DA49008D
:101CB000544A1160AFE74B005918524B1960AAE71C
:101CC000009CA34227DC019CA34218DB019CA2429A
:101CD00015DC019B002B07DB019BC0184B0059183A
:101CE0004118484B196096E7019BDA179B1853403F
:101CF000C01A4B0059184118424B19608BE7019AE2
:101D0000934204DA4B0059183E4B196083E789006F
:101D10003C4A11607FE71C000A34019DAC4214DD8F
:101D2000019D1E000A3EAE420FDA009A002A04DD31
:101D3000009A9B1A334A13606DE7009AD117521824
:101D40004A40D3182F4A136065E7009DAC421ADD64
:101D5000009C1D000A3DA54215DA019B002B07DD02
:101D6000019BC0184B0059184118264B196052E7C7
:101D7000019BDA179B185340C01A4B0059184118A1
:101D8000204B196047E714000A34009DAC4216DD71
:101D9000009D16000A3EAE4211DA019A002A05DDC6
:101DA000019A9B1A5918174B196034E7019AD017FA
:101DB00012184240D3185918124B19602BE7019B97
:101DC0009C4217DD019B0A3A9A4213DA009B002BD2
:101DD00006DB009BC018490041180A4B19601AE73E
:101DE000009BDA179B185340C01A49004118054B55
:101DF000196010E70022034B1A600CE75C08002012
:101E0000580800207400002010B500290DDD0300E3
:101E100049004118002002E002338B4206D0002422
:101E20001A5F9042F8DA1000F6E7002010BD10B5F6
:101E300000290DDD030049004118002002E00233B3
:101E40008B4206D000241A5F9042F8DD1000F6E7BE
:101E5000002010BDF0B585B0444B00229A5E444B83
:101E600000241C5F0434434B1B78002B06D1424BEB
:101E70001A60424B1C6001213E4B19703E4E336884
:101E8000D800C01880183E4F0A21B84705003060BE
:101E90003A4E3368D800C01800190A21B84730609C
:101EA00085420CD0374B384A12689A4236DDFA2305
:101EB0009B00354A12689A4250D005B0F0BD002D03
:101EC000F0D0324A13882DB25800314945520133BF
:101ED0009BB21380062BE5D12E4B2B4A12689A42F7
:101EE000E0D1002100202C4B9847284B1E88284D1C
:101EF00031002800294B98470400294B1860310015
:101F00002800284B9847284B1860844222D0002C88
:101F100020D000281ED000221B4B1A603221002046
:101F20001D4B9847154B1968134B18681F4B984762
:101F3000040001A91E4B984782B201A91D481E4BFF
:101F40009847114A13680133136024B25B001B4A9F
:101F50009C52ACE700220D4B1A80A3E700220A4BEB
:101F60001A600132164B1A70A7E7C046E00900203C
:101F7000080A002070000020780000207C0000206B
:101F8000C12F0000E70300000800002064000020CB
:101F90003C000020E9030000252300002F1E000064
:101FA0005C080020091E000058080020C11B00002A
:101FB0003D260000FC080020F50D000080000020F8
:101FC0003800002010B5134B1B78002B09D0124BA2
:101FD0001B680133FA229200934207D00E4A136025
:101FE00010BD0E4B98470E4B9847F9E700220A4B5D
:101FF0001A600C4B1B6899000B4A89580B4A1160F8
:1020000001330A2B02D0074A1360E9E70022054B8F
:102010001A60E5E778080020680000200527000026
:10202000551E00006C000020643200006008002093
:1020300010B58EB001AA0023002113709371138193
:10204000002050709172D172117391735173117499
:10205000536193611177136253621385538593859E
:1020600004339370C023DB00938055212923D1547E
:10207000074C08492000084B98472268D37B5BB285
:10208000002BFBDB138802210B4313800EB010BD25
:102090007009002000180042F915000010B50C4C22
:1020A00000220C4920000C4B984720680B4B9847A6
:1020B0000B4B1A5C1F231340012211009940094B5E
:1020C0001960637E01210B43637623685A7310BD48
:1020D00070090020C51F000029180000D515000058
:1020E0008C32000000E100E010B5024B9847024B33
:1020F000984710BD312000009D20000010B532210E
:102100000120044B9847044B9847044A1378002B4E
:10211000FCD010BD25230000E9200000380000207D
:1021200070B584B0160001AB5E221A80598002900F
:1021300000221A725A729A72044D054C01A930009D
:10214000A84720700028F9D104B070BDA507000091
:10215000B409002070B58EB001AB244A029200226F
:1021600003921A731A7601214942998208920992C0
:1021700025315A540B9208315A5401315A540131C5
:102180005A54D7321A861A4ADA82C8225200019269
:10219000C02292030592174E174D184C01AA1849F8
:1021A0003000A84720700028F8D1124B1C68072285
:1021B000E3691A42FCD123680222134323600D4DC8
:1021C0002868104B98471F2318401E3B83400E4A37
:1021D0001360E88800231021628B0A4204D1013386
:1021E0008342F9D3102363830EB070BD480D000005
:1021F000409CFFFF8C09002035020000B40900203C
:1022000000080042851B000000E100E000B583B03B
:1022100001A8002303700222427083708033C370D0
:10222000024A0421024B984703B000BD8C090020EC
:102230002121000010B5024B9847024B984710BD72
:10224000552100000D22000010B5014B984710BD2C
:102250003522000030B583B001AC01236370002249
:10226000A270237021001920094DA84721001820D1
:10227000A84721000820A847064B802292049A61B3
:10228000802252049A61802252009A6103B030BDCC
:10229000050200000044004170B5AAB0164D01AC23
:1022A00029002000154B98470122E272FF2363604A
:1022B000FD3B2376002323756375E3619821625407
:1022C0009439A1650E49A16723629933E254943B86
:1022D000E3650C4BE3670C4E2200290030000B4BEA
:1022E00098473268022193681942FCD11368022191
:1022F0000B4313602AB070BD00140042A51000000B
:10230000050004000500050030090020E11100006F
:1023100010B5024B9847024B984710BD552200005C
:102320009922000070B50C0000280AD00A4E002245
:1023300000213000094DA847220001213000A847A4
:1023400070BD054D0A0000212800044CA047002262
:1023500001212800A047F3E730090020691500009B
:1023600010B588421FD9401AC317C0185840D2234D
:102370005B000024984203DDD7218900081A01245C
:1023800032281ED8642148434131FF310F4B984712
:10239000232800D22320642800D96420C1B2200061
:1023A0000B4B984710BD401AC317C0185840D22392
:1023B0005B0001249842E3DDD7218900081A00243C
:1023C000DEE764212000024B9847EBE7AD2E0000CA
:1023D00025230000F0B587B00190224B00229A5EC1
:1023E000214B00269E5F0436204B1B78002B06D124
:1023F0001F4B1A601F4B1E6001211C4B19701C4D96
:102400002B68D800C01880181B4F0A21B847040059
:102410002860184D2B68D800C01880190A21B847C9
:10242000010028602000154B9847040003A9144BB5
:10243000984782B203A91348134B9847019BE31AAC
:102440005A1C01DB012B05DD019920000F4B984739
:1024500007B0F0BD01220E4B1A60002100200D4B89
:102460009847F5E7E0090020080A002054080020FA
:102470007008002074080020C12F0000C11B00005C
:102480003D260000FC080020F50D0000612300003F
:10249000680800202523000010B504000F4B984762
:1024A000002C15D00E4B1B68E31ADA179B1853400B
:1024B000022B03DD0A4B1C600A4B1C600A4B1B7885
:1024C000002B00D010BD074B1868084B9847F9E760
:1024D00000210020064B9847F4E7C046052700007E
:1024E000640800206C0800200C000020D5230000A8
:1024F0002523000070B50E4B98470E4B98470E4BA6
:1025000098470E4B98470E4B984701240D4B1C7073
:10251000BFF35F8F62B60C4B98470C4B1C700A22BE
:102520000B4B1A601D000B4C2868A047FCE7C04607
:10253000AD2D0000C5260000112300004922000037
:10254000FD2000000D000020ED00000078080020B4
:10255000600800209924000030B591B08023DB058D
:10256000009300230193FF2269460A8100228B72A7
:10257000CB72012124206C46215401302154253195
:102580006354013163540A93053163540131635438
:1025900005932382E3762276227762761323A3764D
:1025A0006277E1235B020893C4239B030393012317
:1025B0005B420C930D93104B0E93104B0F93104DE9
:1025C000104C6A4610492800A0470028F9D10C4D4C
:1025D0002C6820000D4B98471F2318401E3B83405A
:1025E0000B4A13602A68D369002BFCD123680222AE
:1025F0001343236011B030BD03001E0003001F0011
:10260000FC080020850A0000000C0042851B000029
:1026100000E100E010B5CA0F52185210002A0BDD7D
:1026200003000139411880181A780C781C700A7060
:10263000013301398342F7D110BD0000F8B5CE4611
:10264000474680B581460E00C21784185440002CBE
:1026500023DD0025184B9846184F0A212000C0475B
:10266000303171550A212000B84704000135002897
:10267000F3DC4B46002B12DB4B46002B13D029001A
:1026800030000F4B98470A23735576190333737044
:10269000A81C0CBC90469946F8BD0025E9E72D23FF
:1026A00073550135EBE7303373557619263B73705C
:1026B0000333B370E81CECE78D310000C12F00003C
:1026C0001526000010B5014B984710BD5925000094
:1026D00084B010B584B0069007910892099301AABE
:1026E000064B13CB13C2064C01A906A8A04700282D
:1026F000FAD104B010BC08BC04B0184790320000F6
:102700008107000030B587B0264C230010336A469D
:1027100023CB23C223CB23C220686168A268E3686D
:10272000214CA047214B5C790022214B1A600132D9
:10273000204B1A70E30632D41C4B1D79197809011D
:102740002B09C9184805400D0B0502D51A4B9C46AC
:1027500060441A4B1880154B5B781B010F222A40EE
:10276000D2185105490D130502D5134B9C466144FF
:10277000134B19800D4B9A7812010F2323409B189D
:102780005A05520D1B0502D50B4B9C4662440D4B5E
:102790001A800122064B1A600022064B1A70002094
:1027A00007B030BD8C090020D12600007C08002035
:1027B000500800200C00002000F8FFFFE009002076
:1027C000080A0020B8090020704700000C4B1B6865
:1027D000002B06D1EFF31083002B07D00022094B0A
:1027E0001A70074A136801331360704772B6BFF35B
:1027F0005F8F0022044B1A700132024B1A70F0E70F
:1028000084080020880800200D000020084B1A686A
:10281000013A1A601B68002B09D1064B1B78002B6C
:1028200005D00122044B1A70BFF35F8F62B6704768
:1028300084080020880800200D00002010B508281A
:1028400003D880001B4B1B589F46002030E01A4BDA
:1028500018692DE0194B1B6A9B059B0F1848D8403F
:1028600026E0154B586923E0134B1B6800209B079B
:102870001ED512491022CB681A42FCD00E4B1B68A1
:102880005B0701D40F4813E000200F4B98470A4B19
:102890009B681B041B0C58430AE05023074AD35C77
:1028A00000205B0704D5044BD86801E080200002BB
:1028B00010BDC0469C3200008C080020000800407B
:1028C00000127A00006CDC029D2C000070B50C49EF
:1028D0000B6A0478857840780122104080014026F8
:1028E000B34303432A40D20180208343134303228E
:1028F000224012020348034013430B6270BDC046DE
:1029000000080040FFFCFFFF082803D88000254B8B
:102910001B589F46172044E0234A136A02210B43A9
:10292000136200203DE0204A936902210B4393612A
:10293000002036E01C4A138A02210B431382002038
:102940002FE0194A938A02210B439382002028E04A
:1029500016490B68022213430B60134B9A8419002B
:102960000E32CB681A42FCD0104A91680E4BD962E5
:1029700052689A6200229A8419001032CB681A4277
:10298000FCD00A4B1B689BB2074A9384002008E0E6
:10299000054944228B5C022003438B54002000E055
:1029A00000207047C0320000000800408C08002062
:1029B00030B585B0C222D2001A4B9A601A4A5368C9
:1029C0001E218B43536001236A4613700024174D68
:1029D000E0B26946A8470134182CF9D103A80024B5
:1029E0004470012585700470114B98470620114BE7
:1029F0009847114B9847114B1C725C729C72DC72A9
:102A000001956B465C7006236A461370147254720B
:102A1000694600200A4B984700200A4B984705B0AA
:102A200030BDC0460008004000400041812C00003D
:102A3000CD28000009290000492A000000040040B8
:102A40006D2A0000252B0000064A936908210B43DC
:102A500093610122044B1A7019000B781342FCD1C8
:102A60007047C04600040040000C004070B50600EE
:102A700004000D782D0205434B78002B02D08023F3
:102A8000DB021D434B7A002B02D080231B031D4326
:102A90004868012810D9431E184234D1022830D981
:102AA0000223002201325B009842FBD8120232431B
:102AB000140080235B031D430B7A002B02D080237C
:102AC0009B031D43134A53785BB2002BFBDB124B75
:102AD0009847124B1E700F4A53785BB2002BFBDBFA
:102AE0000C4B9C601A0053785BB2002BFBDB094A4D
:102AF0005368802149020B401D435560084B98479D
:102B000070BD0022D2E70402344380239B021D43A0
:102B1000D2E7C046000C0040CD270000080C004062
:102B20000D28000010B504000B4A53785BB2002B4F
:102B3000FBDB0A4B98470A4B1C70074A53785BB281
:102B4000002BFBDB044A516880235B020B4353607C
:102B5000044B984710BDC046000C0040CD27000034
:102B6000040C00400D28000070B504001A4A537888
:102B70005BB2002BFBDB194B9847194B1C70164AB4
:102B800053785BB2002BFBDB134E7068C004C00EA1
:102B9000144B98470500124B1C707668F602F60F2E
:102BA000114B1C700C4A53785BB2002BFBDB0A4BB9
:102BB0009C682402240C0D4B9847002E07D1012C51
:102BC00007D9210028000A4B9847050001E001348D
:102BD000E540280070BDC046000C0040CD27000035
:102BE000040C00403D280000080C00400D280000A7
:102BF000AD2E000010B50400064B9847064B1C7024
:102C0000064A53888021C9010B435380044B9847DF
:102C100010BDC046CD270000020C0040000C004053
:102C20000D28000010B504000F4B98470F4B1C7087
:102C30000F4A53881B05180F53880E490B405380C9
:102C400053880D490B40538011008022D2014B88DC
:102C50001342FCD106494A88030206480240134346
:102C60004B80064B984710BDCD270000020C00405A
:102C7000000C0040FFF0FFFFFFBFFFFF0D2800002A
:102C800010B50C7824020443024B9847A4B2024BBF
:102C90005C8010BD252C0000000C004010B5040025
:102CA000064B9847064B1C70064B5C882405240F86
:102CB000054B98472000054B984710BDCD270000D5
:102CC000020C0040000C00400D280000692B0000A1
:102CD00030B5D378002B35D11378802B29D01B0643
:102CE00080246402234354780225AC4306D19478AF
:102CF000002C20D18024A402234341605478013C5D
:102D0000012C1CD90D042D0CA024E4052C431C43DC
:102D100084620D0CD02424062C431C438462D47896
:102D2000002C22D15B031CD59378012B1ED041616E
:102D300017E00023D7E7C024E4022343DDE70D4C6E
:102D40002340DFE741600C04240CA023DB05234370
:102D500083620C0CD0231B0623438362D378002BA1
:102D600003D15378013B012B02D930BD8161F8E7D3
:102D70008160FAE7FFFFFBFF10B50A00C1090023DD
:102D8000002904D14309DB0105498C4663441F2413
:102D90002040012181401800024B984710BDC046D9
:102DA00000440041D12C00007047000010B5054BD5
:102DB0009847054B9847054B9847054B9847054B57
:102DC000984710BDB1290000C9270000A92D0000B7
:102DD00099010000A92D0000FEE7000010B5264A69
:102DE000264B9A4211D01A00254B9A420DD2254A01
:102DF00003339B1A9B0801339B0000221F481E4986
:102E00008C58845004329A42FAD11F4A1F4B9A427E
:102E10000AD2D3431D495B1803218B4304339B180B
:102E2000002102C29342FCD1194AFF21194B8B4366
:102E30009360FD3990235B00174AD150174B9A7B62
:102E40002E318A4320210A439A739A7B0C218A43AC
:102E500008210A439A739A7B03218A4302210A4379
:102E60009A730F4A536880210B4353600D4B984768
:102E70000D4B9847FEE7C0460433000000000020D9
:102E8000100000200400002010000020300A002064
:102E900000ED00E00000000000700041004800412B
:102EA00000400041ED310000F524000000224308FD
:102EB0008B4274D303098B425FD3030A8B4244D302
:102EC000030B8B4228D3030C8B420DD3FF22090244
:102ED00012BA030C8B4202D31212090265D0030B03
:102EE0008B4219D300E0090AC30B8B4201D3CB03F9
:102EF000C01A5241830B8B4201D38B03C01A52413B
:102F0000430B8B4201D34B03C01A5241030B8B423C
:102F100001D30B03C01A5241C30A8B4201D3CB0227
:102F2000C01A5241830A8B4201D38B02C01A52410C
:102F3000430A8B4201D34B02C01A5241030A8B420F
:102F400001D30B02C01A5241CDD2C3098B4201D327
:102F5000CB01C01A524183098B4201D38B01C01AA5
:102F6000524143098B4201D34B01C01A524103091C
:102F70008B4201D30B01C01A5241C3088B4201D3CB
:102F8000CB00C01A524183088B4201D38B00C01A78
:102F9000524143088B4201D34B00C01A5241411A9F
:102FA00000D20146524110467047FFE701B50020AC
:102FB00000F0F0F802BDC0460029F7D076E7704770
:102FC00003460B437FD4002243088B4274D303098A
:102FD0008B425FD3030A8B4244D3030B8B4228D32B
:102FE000030C8B420DD3FF22090212BA030C8B4251
:102FF00002D31212090265D0030B8B4219D300E0F1
:10300000090AC30B8B4201D3CB03C01A5241830B75
:103010008B4201D38B03C01A5241430B8B4201D325
:103020004B03C01A5241030B8B4201D30B03C01A4E
:103030005241C30A8B4201D3CB02C01A5241830AC8
:103040008B4201D38B02C01A5241430A8B4201D3F7
:103050004B02C01A5241030A8B4201D30B02C01A21
:103060005241CDD2C3098B4201D3CB01C01A524188
:1030700083098B4201D38B01C01A524143098B4211
:1030800001D34B01C01A524103098B4201D30B01FA
:10309000C01A5241C3088B4201D3CB00C01A52411F
:1030A00083088B4201D38B00C01A524143088B42E4
:1030B00001D34B00C01A5241411A00D2014652417D
:1030C000104670475DE0CA0F00D04942031000D39C
:1030D0004042534000229C4603098B422DD3030AF1
:1030E0008B4212D3FC22890112BA030A8B420CD301
:1030F000890192118B4208D3890192118B4204D32A
:1031000089013AD0921100E08909C3098B4201D3A9
:10311000CB01C01A524183098B4201D38B01C01AE3
:10312000524143098B4201D34B01C01A524103095A
:103130008B4201D30B01C01A5241C3088B4201D309
:10314000CB00C01A524183088B4201D38B00C01AB6
:103150005241D9D243088B4201D34B00C01A52418D
:10316000411A00D20146634652415B10104601D31A
:103170004042002B00D54942704763465B1000D3A4
:10318000404201B5002000F005F802BD0029F8D04A
:1031900016E770477047C046F0B5CE46474615045F
:1031A0002D0C2E0080B50704140C3F0C9946030C1F
:1031B0007E435D43674363437F19340CE4199C46A7
:1031C000A54203D980235B029846C4444B46514331
:1031D00043433604360C250C24046544A4195918BD
:1031E000491920000CBC90469946F0BD70B50026E8
:1031F0000C4D0D4C641BA410A64209D1002600F012
:1032000071F80A4D0A4C641BA410A64205D170BD8A
:10321000B300EB5898470136EEE7B300EB589847F8
:103220000136F2E7F0320000F0320000F032000028
:10323000F432000001000000020000000400000061
:103240000800000000100000002000000040000006
:1032500000800000000001000000020000000400E7
:10326000000008000A00000064000000C800000020
:103270002C01000090010000F40100005802000041
:10328000BC020000200300000A0000000D0E000038
:103290005E0006007C080020000000004E280000B0
:1032A0004A2800004A280000AC280000AC28000092
:1032B0006228000054280000682800009A280000B6
:1032C000342900001429000014290000A02900005E
:1032D000262900004229000018290000502900007A
:1032E00090290000F8B5C046F8BC08BC9E4670475F
:1032F000B5000000F8B5C046F8BC08BC9E46704753
:043300008D0000003C
:10330400401F000008000000E90300000101000064
:0400000300002DDDEF
:00000001FF
