:10000000880B0020A9240000A5240000A5240000DE
:1000100000000000000000000000000000000000E0
:10002000000000000000000000000000A524000007
:100030000000000000000000A5240000A52400002E
:10004000A5240000A5240000A5240000A52400008C
:1000500039010000A5240000A524000000000000D4
:10006000A52400002915000039150000000000003B
:1000700099100000C1130000D1130000A524000056
:10008000A5240000A5240000A524000010B5064CFE
:100090002378002B07D1054B002B02D0044800E049
:1000A00000BF0123237010BD0400002000000000E9
:1000B00050290000084B10B5002B03D00749084811
:1000C00000E000BF07480368002B00D110BD064BBD
:1000D000002BFBD09847F9E7000000000800002043
:1000E0005029000050290000000000001723002ABA
:1000F00001D0180070478B00064A9B58002B03D094
:10010000834205D01D23F4E7890088500023F0E7DF
:100110000023EEE7140600201723002901D0180061
:10012000704700221F2800D8024A01238340D36071
:100130000023F4E70018004070B50022104B1A703D
:10014000002310491F25104E0D4C0AE00D4908E010
:1001500023780133DBB223700F2B10D800211F2B23
:10016000F4D9280018400122824008691042EFD0DB
:100170000A619B009B59002BEAD09847E8E770BDC5
:10018000100600200018004014060020044A1378CE
:1001900002210B43137053785BB2002BFBDB7047DB
:1001A0000018004000B583B0124A936940210B4308
:1001B000936101A900230B7005200F4B9847052080
:1001C0000E4B98470E4A137801210B431370537856
:1001D0005BB2002BFBDB0B4B19004031002204C348
:1001E0009942FCD11022084B1A60084B984703B083
:1001F00000BDC046000400404D230000C1220000A5
:10020000001800401406002000E100E08D0100000D
:100210000023036043600122027242728372023340
:10022000C3727047F0B583B005000C0001A900232C
:100230004B70CB7023790B70237A8B702078154B21
:10024000984700201F2D00D8134807222A4092000B
:10025000E77AA37A002B01D008231F43EB089B0009
:10026000C31899690F269640B14397403A000A4354
:100270009A61637A002B06D143690122AA40934315
:10028000436103B0F0BD42690123AB4013434361B6
:10029000F7E7C046452400000018004000B583B0D1
:1002A00001AB80221A700A785A704A789A708A785C
:1002B000DA701900014B984703B000BD45240000D7
:1002C00001680722CB691A42FCD17047F0B5CE46CF
:1002D000474680B583B007000D001600396008005E
:1002E0007B4B98477B4A116A841C0123A3400B4334
:1002F000136201A9337B0B700E30C4B22000764B21
:1003000098472000754B9847307B0021744B9847E5
:100310002B681C209B0704D503B00CBC9046994663
:10032000F0BD2B681738DB07F6D43868684B984661
:10033000984704006B496C4B9847A4006B4BE750FF
:1003400000233B767B76002291467B83BB8325226C
:100350004946B9543B6214332B603C682000C047C7
:10036000804680236A4613706B464A465A700123C2
:100370006A4693706B464A46DA70F069356A00281F
:1003800077D06B46187002236A465370000CC0B2D7
:100390006946574B9847002D70D06B461D7002235D
:1003A0006A465370280CC0B26946514B9847B38ACD
:1003B000FB80F38A3B81337E8022002B04D14D4B9E
:1003C0009B789B07DB0FDA01B16833690B4313435A
:1003D0002422B25C002A02D08022D2051343B26AE2
:1003E00013432C22B25C002A03D180229204914252
:1003F00002D18022120513432D22B25C002A02D0C2
:100400008022120413432E22B25C002A02D08022E2
:10041000D203134322681343236080235B0063608D
:1004200045460E35E8B2344B984707007368984646
:10043000FA21C90033685943304BC818C019304BF2
:100440009847050080239B04B2689A421CD0402044
:10045000FF2D00D960E700260020FF232B40360641
:1004600033430004FF22120410400343E3600020E2
:1004700052E700212000234B984782E7012120000A
:10048000204B9847050088E7FA21890043464B43F3
:100490009846780059004144194B9847461E002E53
:1004A0000BD041463800164B98470238801BFF2D71
:1004B0000BD8FF28D1D940202EE743465900481ECB
:1004C000C0190F4B98470138F1E7402024E7C04698
:1004D000AD140000000400404D230000C1220000C4
:1004E000E113000031090000D5140000600600206F
:1004F000452400000020004169230000BF96B8FF9A
:10050000792500002D14000003681A7E920707D594
:1005100002221A765B8B9B074120DB17184070473D
:100520005A8B520706D55968C02292020A435A6074
:100530001820F4E70020F2E730B502680023012418
:100540000225117E21420BD1117E294206D10133B1
:100550009BB201899942F4D8122002E0002000E009
:10056000002030BD10B5046862688023DB021343AD
:1005700063606162024B98470123237610BDC04639
:1005800039050000F0B5DE4657464E464546E0B513
:1005900083B00600894605684C882B681B01DB0F79
:1005A0009A464B7A002B2BD16B68584A13406B60EC
:1005B0004B461B7A002B27D14B461B885B004A46D3
:1005C000527A92031343012213436B623000504B63
:1005D000984701905346002B03D04B465B88012B74
:1005E0003BD06B68494A13406B60019B002B3AD0AB
:1005F000019803B03CBC90469946A246AB46F0BD7C
:10060000897A444B9847CFE74B461B885B004A46A4
:10061000527A920313438022120213436B6230001A
:100620003B4B984701906B68384A13406B60002839
:10063000DED13000384B984701900028D8D14B4686
:100640001B881B0A782213435B004A46527A9203A6
:1006500001210A4313436B62B8E76A688023DB0217
:1006600013436B60C1E730002B4B98470190002883
:10067000BED1013CA4B28046284B9B4615E0012C1C
:1006800020D03000264B984743465F1CBFB228233A
:10069000EB5C4A4652684146535430001C4B984725
:1006A000013CA4B2002815D1B8465C4514D06B8B30
:1006B0009B0627D5F37A002BE3D05346002BDED1DF
:1006C000002CDED16A688023DB0213436B60013C9F
:1006D000A4B2EAE7B8460190B37A002B09D1300002
:1006E0000F4B98472823EA5C4B465B6841465A54B7
:1006F0007EE730000A4B98476A68C0239B02134389
:100700006B60ECE74123019372E7C046FFFFFBFFFC
:10071000390500006505000009050000FFFF000025
:10072000C1020000F0B5DE4657464E464546E0B5EC
:1007300083B006000F0005684C88324B98477B7ADF
:10074000002B1DD16B68304A13406B603B7A002B45
:100750001BD03B885B007A7A9203134380221202FB
:1007600013436B623000294B98470190002813D047
:10077000019803B03CBC90469946A246AB46F0BDFA
:10078000B97A3000224B9847DCE73B885B007A7AE5
:10079000920313436B62E5E730001E4B9847031E3C
:1007A0000190E5D1A046002420339946154B9B4685
:1007B000164B9A46444515D06B8B4A4613421DD0C2
:1007C0003000D8477B681A5D2823EA543000D047B0
:1007D000002806D16B8B01345B07EBD51E230193F8
:1007E00000E00190B37A002BC2D03000054B98474F
:1007F0006A68C0239B0213436B60B9E741230193EE
:10080000B6E7C046C1020000FFFFFBFF390500004C
:10081000650500000905000010B5838B9BB2052219
:10082000002B01D0100010BD01338372C372024B44
:1008300098470200F6E7C0468505000010B5838B97
:100840009BB20522002B01D0100010BD0133837232
:10085000C372024B98470200F6E7C0462507000026
:1008600001680722CB691A42FCD1704770B50400B9
:1008700006683268458B838BED1AADB2838B013BE2
:100880009BB2838313011DD5C37A002B03D0838BC6
:100890009BB2012B10D0A38B9BB2002B02D1A37A69
:1008A000002B1CD12000124B9847236A5D19282386
:1008B000F35CDBB22B7070BD72688023DB021343E4
:1008C0007360E8E7C37A002BE5D0838B9BB2002BE3
:1008D000E1D172688023DB0213437360DBE7200001
:1008E000034B98477268C0239B0213437360D9E798
:1008F0006108000070B5040005686B8B5B0703D5C9
:100900001E222523C25470BD468B838BF61AB6B2C5
:10091000838B013B9BB28383044B9847236A9E19C8
:100920003378DBB22822AB54EDE7C0466108000003
:1009300070B58000754BC45825682B681B01DA0F11
:10094000637E267E1E40638B9BB2002B03D1A38B5C
:100950009BB2002B23D1638B9BB2002B08D0A38BBF
:100960009BB2002B04D12533E35C052B00D16DE055
:10097000638B9BB2002B24D0A38B9BB2002B20D087
:100980006B8B9B0600D581E0002A04D0A38B9BB221
:10099000012B00D17AE041222523E25411E02B7E85
:1009A000DB0707D501232B766B8B9B072ED54122C6
:1009B0002523E254A38B9BB263832523E35C052BA1
:1009C00038D0638B9BB2002B07D0A38B9BB2002B3C
:1009D00003D12533E35C052B64D02523E35C052B91
:1009E00013D02523E35C002B0FD003232B750023AA
:1009F0006383A3832533E35C412B03D0A37A002BCD
:100A000000D075E0730700D57BE070BD6B8B5B0792
:100A1000D0D518222523E2540023A383A37A002BE8
:100A2000C8D020003A4B98476A68C0239B02134302
:100A30006B60BFE71F33E35C002B03D02000354B16
:100A40009847BEE72000344B9847BAE71F33E35C72
:100A5000002B00D08CE703332B75002363832533F1
:100A60000022E254A37A002B07D101232B76F3074F
:100A7000A7D5E36820009847A3E72000244B9847B8
:100A80006A68C0239B0213436B60F0E72423E35C96
:100A9000002B03D12000204B984792E720001D4BEC
:100AA00098478EE71F33E35C012B96D12B7E9B0783
:100AB00001D502232B7603232B7500236383253373
:100AC0000022E254B30703D52423E35C012B0BD0AF
:100AD000F30700D481E72423E35C002B00D07CE7FC
:100AE000E3682000984778E723692000984774E777
:100AF0002000074B98476A68E023DB0213436B60D2
:100B000080E76369200098477FE7C04660060020C1
:100B1000610800006D080000F50800000020704723
:100B200030B504001720032900D930BD114DAA4269
:100B3000FBD82068002B10D0802464028C40036B0B
:100B40001C42FCD1802424038C4083681C42FCD1CD
:100B50001C3189000A500020E7E7802464008C40A3
:100B600083681C42FCD11031890041184A60002082
:100B7000DBE7C046FFFFFF00002303604C4A4260F2
:100B80008372C372037343720372C361036243626D
:100B90008362037543758375C37503764376037467
:100BA00043748374C3742C228354013283540132FE
:100BB000835401328354013283540132835401320D
:100BC00083540132835401328354013283540132FD
:100BD00083540132835401328354013283540132ED
:100BE00083540132835401328354013283540132DD
:100BF00083540132835401328354013283540132CD
:100C000083540132835401328354013283540132BC
:100C100083540132835401328354013283540132AC
:100C2000835401328354013283540132835401329C
:100C3000835401328354013283540132835401328C
:100C4000835401328354013283540132835401327C
:100C50008354013283544132835483658367013264
:100C60008354C365C3670132835403661A3A8350C1
:100C70001B3283544366173A835018328354836679
:100C8000143A835015328354C366113A835012329A
:100C9000835403670E3A83500F32835443670B3AF1
:100CA000835001210C328154013283547047C04675
:100CB000FFFFFF00F0B5DE4657464E464546E0B51D
:100CC0008DB006000C0015000800CD4B98470300BE
:100CD000CC490A6A202002430A622268043892073B
:100CE00006D50DB03CBC90469946A246AB46F0BD39
:100CF000226801271740F4D1C34A05382968914278
:100D0000EFD869689142ECD8E969914200D98BE14A
:100D1000296A914200D989E1696A914200D987E143
:100D2000A96A914200D985E12A7C013A504250419A
:100D3000020601926A7C012A31D0AA7C012A34D0B1
:100D4000EA7C012A37D0A122AA5C002A04D08022A2
:100D500012010199114301912A7A511E8A41920090
:100D600003926A7A012A2CD03522AA5C032A00D980
:100D700062E12C21695C0F2900D95DE1287B049098
:100D8000E87A05902D208246AA44002002978446E6
:100D900006960E00A0465446A946079347E08022D7
:100DA0009204019911430191C7E78022D20401996D
:100DB00011430191C4E78022120501991143019169
:100DC000C1E7039911430391CEE79202C0252D019B
:100DD0002A4032430D7903262E40324355462A439A
:100DE0004E797601602535402A438D792D02C02643
:100DF000B60035402A43CD792D03E026F601354073
:100E00002A43104303431F4308AB624608201B18C4
:100E10009F50042A28D08A7C032A00D90CE14E7AFC
:100E20000A3404239A46D4440F2E00D904E136062E
:100E3000F0231B051E40210025782D04FF231B04F1
:100E40001D40AA4663788020002B00D102988F783D
:100E50000823002F00D1029BCF78BB4610275D46A8
:100E6000002DB2D1029FB0E7069E44464D46079B37
:100E70004846503049464131002280277F02BC4617
:100E80000127B9460227FF37BA461F001300A046C4
:100E90003C0007E0574697403B43013201300231A6
:100EA000082A0ED00778002F02D0674697403B43B0
:100EB0000F78002FF1D0022FECD04F4697403B43E4
:100EC000EBE722004446984613006A7E1201302167
:100ED0001140287E07220240114300228020400258
:100EE0000F0002E00132042A07D0A918097D002969
:100EF000F8D0010091400F43F4E7B946321D3000AD
:100F00003430002102C29042FCD100227263B263ED
:100F10009B003E4A9E503460A023EA5C643BF2543E
:100F200009A9AB7A0B701120394B98471120394B26
:100F300098472F0098372E00583678239A46AA44AF
:100F4000773B9B46230054469A4603E0013704361C
:100F5000B44214D03B78002BF8D008AB5A469A70B4
:100F6000002308AAD37013002022B21812781A7036
:100F70005A465A7030781900274B9847E6E754468E
:100F8000049B1B03059A12021343019A1343236027
:100F90000422A3681A42FCD1FF2323710422A36810
:100FA0001A42FCD16B461B7B63710A9BE3600B9B6F
:100FB00023614346A361194AA3681342FCD14B46FF
:100FC000E3631022A3681A42FCD12B686363144ABE
:100FD000A3681342FCD16B6823641C3500211148BF
:100FE00002008A40A3681A42FCD104CD0B001033E2
:100FF0009B00E3185A6001310429F1D1002070E60A
:101000001D0B000000040040FFFFFF0054060020FD
:101010004D230000C12200004524000040000200D2
:10102000800004000001080017205AE6172058E647
:10103000172056E6172054E6172052E610B53C2339
:10104000C35C014CA04710BD210B0000F0B5C646A3
:1010500000B580000E4BC7583B68DE6ABB6B7A6BED
:1010600013401E4000240B4B984602E00434302C01
:101070000AD04346E5583542F8D03B195B68380042
:1010800098473B68DD62F1E704BC9046F0BDC0467E
:1010900054060020AC28000010B50020014B9847F2
:1010A00010BDC0464D100000064B984208D0064ABD
:1010B0000023904201D0180070470133DBB2FAE7F9
:1010C0000023FBE700180042001C0042F0B585B089
:1010D00004000D0016000800824B9847070003AB80
:1010E00012221A705A7002AB2E321A8040325A8085
:1010F0000023A360E360236163612376637682004B
:10110000794BD4502560B378082B06D023712B88F7
:101110000520DB0705D505B0F0BD1720FA07FAD486
:10112000F4E7EB7B1730DB06F5D42B889B07F2D472
:10113000337C002B00D07AE0337F002B00D082E09C
:101140006A49086A7A0002ABD35A03430B62B37848
:10115000082B00D187E033786A46137003ABDF5D5C
:1011600069463800624B98473800624B984731898E
:10117000B3880B43B178B279114319437378002BCC
:1011800002D080231B0119432268D37B5BB2002B62
:10119000FBDB2980717B4B1E99418900B37B002BBF
:1011A00001D0012319432268D37B5BB2002BFBDB08
:1011B000FF232B71002905D02268D37B5BB2002B63
:1011C000FBDB6971B17AF37A002B01D0102319434C
:1011D000337B002B01D0202319432268D37B5BB2E1
:1011E000002BFBDBA9712268D37B5BB2002BFBDBFE
:1011F0002379042B3FD0082B5ED01720002B00D082
:1012000089E7D37B5BB2002BFBDB338D2B8222681B
:10121000D37B5BB2002BFBDB738D2B832268D37BEC
:101220005BB2002BFBDBB38D6B83002073E701A95E
:1012300001238B700022CA70327E0A704B70307DA1
:101240002D4B984778E701A901238B700022CA70C3
:101250002432B21812780A704B701F33F3181878C2
:10126000254B98476CE7086A7A1C520002ABD35AA8
:1012700003430B626FE7D37B5BB2002BFBDB2823BE
:10128000F35C2B742268D37B5BB2002BFBDB29233E
:10129000F35C2B752268D37B5BB2002BFBDB2A232C
:1012A000F35C2B762268D37B5BB2002BFBDB2B231A
:1012B000F35C6B7600202EE7D37B5BB2002BFBDB6D
:1012C000B36A2B612268D37B5BB2002BFBDBF36A32
:1012D000AB612268D37B5BB2002BFBDB336BEB6132
:1012E000002018E7A9100000580600200004004064
:1012F0004D230000C1220000452400000268D37B7A
:101300005BB2002BFBDB0379042B05D0082B0BD041
:101310001720002B04D07047C9B211740020FAE7DF
:1013200089B211820020F6E711610020F3E702681C
:10133000D37B5BB2002BFBDB0379042B05D0082B9E
:1013400009D00020002B03D07047107CC0B2FBE70F
:10135000108A80B2F8E71069F6E7000070B58000E7
:10136000164BC45823689D7B227E637E13401D402C
:10137000EB0706D4AB070BD4EB0610D4AB0615D4A1
:1013800070BD2000A3689847012322689373F1E79A
:101390002000E3689847022322689373ECE720005B
:1013A00023699847102322689373E7E72000636955
:1013B0009847236820229A73E2E7C0465806002027
:1013C00010B50020014B984710BDC0465D130000CA
:1013D00010B50120014B984710BDC0465D130000B9
:1013E00010B582B004000E4B1B78002B07D00029EB
:1013F00005D10B4B5B78834210D01D200CE001A976
:101400000C700D20074B98470D20074B9847044B55
:101410005C7001221A70002002B010BD0020FBE7B2
:10142000200000204D230000C1220000154B9842EF
:1014300004D0154B984211D000207047012907D0E5
:1014400000291BD0022905D0032905D00020F4E78C
:101450000E48F2E70E48F0E70E48EEE7012907D004
:1014600000290DD0022905D0032905D00020E4E78A
:101470000948E2E70948E0E70948DEE70948DCE710
:101480000948DAE700080042000C004202000F00A1
:10149000030008000300090002001F0002001800FA
:1014A0000200190002000E0002001E00064B9842C6
:1014B00008D0064A0023904201D01800704701333B
:1014C000DBB2FAE70023FBE700080042000C004211
:1014D0007047000030B5094B1B78002B0AD1084C2F
:1014E000084D2560084B00221A6065605A60013281
:1014F000024B1A708000024BC15030BD2200002008
:1015000024000020D11400006006002010B582B035
:1015100001AC0923237001336370024B98472056B6
:1015200002B010BDAD14000010B5024B1B680020C6
:10153000984710BD2400002010B5024B5B680120C5
:10154000984710BD2400002070B51C4B1B78002B61
:101550001BD11B4D2C681B481B4B9847A4001B4BF1
:10156000E0500122154B1A70194B9A6919490A402B
:101570009A619969802252050A439A612B68013366
:101580000A2B14D00E4A136010E000210D48124BB4
:1015900098470F4B9A690F490A409A6199698022CE
:1015A00092050A439A610022044B1A7070BD002212
:1015B000034B1A600132094B1A70F7E70000002054
:1015C0002C000020680600202F130000900100204E
:1015D00000180040FFFFFF8FFD1200008C0100206B
:1015E00010B58EB001AA002300211370937093717F
:1015F0001381002050709172D172117391735173E5
:10160000117453619361117713625362138553858B
:101610009385A023DB009380074C08492000084BEA
:1016200098472268D37B5BB2002BFBDB1388022137
:101630000B4313800EB010BD68060020001C004252
:10164000CD10000010B584B001AC2000084B9847C5
:101650000923019390231B03636002232372013B40
:10166000E37221000720034B984704B010BDC04629
:10167000110200002502000010B5002207210448D5
:10168000044B984700210720034B984710BDC046E4
:1016900049150000ED0000001901000010B5034BD2
:1016A0009847034B9847034B984710BDE11500003E
:1016B000451600007916000070B584B0160001AB25
:1016C0005E221A805980029000221A725A729A720F
:1016D000044D054C01A93000A84720700028F9D11D
:1016E00004B070BD3D0800000807002070B58EB042
:1016F00001AB244A0292002203921A731A76012146
:10170000494299820892099225315A540B92083124
:101710005A5401315A5401315A54D7321A861A4A4E
:10172000DA82C82252000192C02292030592174E1B
:10173000174D184C01AA18493000A84720700028FE
:10174000F8D1124B1C680722E3691A42FCD12368C6
:101750000222134323600D4D2868104B98471F2326
:1017600018401E3B83400E4A1360E8880023102176
:10177000628B0A4204D101338342F9D3102363837D
:101780000EB070BD480D0000409CFFFFE006002039
:10179000CD02000008070020000800420D150000DF
:1017A00000E100E000B583B001A80023037002222D
:1017B000427083708033C370024A0421024B984701
:1017C00003B000BDE0060020B916000010B5024BC2
:1017D0009847024B984710BDED160000A517000072
:1017E00010B5014B984710BDCD17000030B583B040
:1017F00001AC012363700022A27023702100192024
:10180000094DA84721001820A84721000820A84713
:10181000064B802292049A61802252049A618022AF
:1018200052009A6103B030BD9D02000000440041A7
:1018300070B5AAB0164D01AC29002000154B984791
:101840000122E272FF236360FD3B237600232375B0
:101850006375E361982162549439A1650E49A167CB
:1018600023629933E254943BE3650C4BE3670C4EDF
:101870002200290030000B4B984732680221936800
:101880001942FCD1136802210B4313602AB070BDCA
:1018900000140042790B000005000400050005005B
:1018A00084060020B50C000010B5024B9847024B8F
:1018B000984710BDED1700003118000070B50C00FE
:1018C00000280AD00A4E002200213000094DA84706
:1018D000220001213000A84770BD054D0A000021FB
:1018E0002800044CA047002201212800A047F3E76C
:1018F000840600203D100000F0B5D6464F4646460F
:10190000C0B5AEB0814600230593049303933B4AD0
:1019100013601368042B0FDC13001AA8002406A917
:101920001A68920014501A68920054501A680132D2
:101930001A601A68042AF3DD00239C462F4B984650
:101940001C00180006AD1A001EE013680133136076
:101950001668059B9E420ED223689B005B589F42EF
:10196000F3D103680668B600765901369B005E51D4
:1019700000230193E9E7019B002B14D101239A4630
:10198000D4446346052B1AD04346002119601968D8
:10199000059B994207D263469B004946CF580123D5
:1019A00001931AA9D8E7059B9B0049465E586346F8
:1019B0009B001AA95E50059B01330593DEE7059B4A
:1019C000002B0FD00020002306A903E00133059A65
:1019D000934207D29A0052588242F7D304939A0056
:1019E0005058F3E7049B9B001AAA9B580393039853
:1019F0002EB01CBC90469946A246F0BD5401002072
:101A000010B5884220D9401AC317C01858408C23FB
:101A10005B000124984203DD8C218900081A002410
:101A200032281FD88100081800018C214900104B72
:101A30009847232800D22320502800D95020C1B233
:101A400020000C4B984710BD401AC317C0185840CF
:101A50008C235B0000249842E2DD8C218900081A67
:101A60000124DDE750212000024B9847EBE7C046F8
:101A700079250000BD18000082B001900091019B03
:101A8000002B02DB009B002B0FDB019B002B10DBEC
:101A9000009B002B0DDB019A8F235B009B1A114AE0
:101AA0001360104B186802B07047019A0D4B1A6012
:101AB000F7E7019B002B09DB019AD317D2185A4094
:101AC0008F239B009B1A074A1360EAE7009B002BB9
:101AD000F2DB019BDA179B1853401F33FF33014A97
:101AE0001360DEE758010020F0B583B00190664B2B
:101AF0000027DF5F654B00269E5F08236448654929
:101B00009A1E855E1D528D5E5D52131EF8D1624B8A
:101B10001B78002B1ED0FA17BB1853405C4A0021DB
:101B2000525ED11752184A409B1A0933122B01D822
:101B3000574B1F80F217B3185340564A0021525E8C
:101B4000D11752184A409B1A0933122B06D8514B11
:101B50001E8003E04E4B1F804E4B1E804F4B1D6876
:101B60004B4A0821535E9800C01840000623D15EFE
:101B70000B015B1AC0180423D15E8B005B189B001D
:101B8000C0180223D15E8B005B1899005B18C01847
:101B90000023D25E13019B1A5B00C018404F6421E2
:101BA000B847AE003F4BF0503A4A0821535E9800C8
:101BB000C01840000623D15E0B015B1AC018042335
:101BC000D15E8B005B189B00C0180223D15E8B0096
:101BD0005B1899005B18C0180023D25E13019B1A92
:101BE0005B00C0186421B8472F4BF0502A4B1B787C
:101BF000002B30D02B4BF0582B4BF1582B4B9847E8
:101C00002B4B18601B68019A9B1ADA179B185340DC
:101C1000012B18DD264B18680199264B9847264A58
:101C200013882349096889B25B0024481952138834
:101C300001339BB2138013889BB2F422FF3293428C
:101C40001ED003B0F0BD01221D4B1A600021002000
:101C50001C4B9847E3E7AB00124A9858124A995830
:101C6000124B9847124B186001350C4B1D60062D26
:101C7000D5D10122084B1A700022084B1A60CEE71A
:101C800000220D4B1A80DCE7340700205C0700209F
:101C9000D0010020E4010020500100204801002074
:101CA0008D26000030000020BC000020791A0000C2
:101CB00080010020011A0000FC0100200002002029
:101CC000CC010020BD18000010B5084B1B78002B7C
:101CD00002D1074B186810BD0022044B1A7005484A
:101CE000054B9847024B1860F3E7C0468C01002073
:101CF0008401002090010020F918000010B50400B4
:101D00000F4B9847002C15D00E4B1B68E31ADA17BF
:101D10009B185340022B03DD0A4B1C600A4B1C60CE
:101D20000A4B1B78002B00D010BD074B1868084BDE
:101D30009847F9E700210020064B9847F4E7C04692
:101D4000D11D000088010020F801002001000020C2
:101D5000E91A0000BD18000070B5094B9847094BFF
:101D60009847094B9847094B98470122084B1A702E
:101D7000BFF35F8F62B6074D074CA847A047FCE74B
:101D800079240000A9180000E11700009D1600004A
:101D900002000020C91C0000FD1C000084B010B52A
:101DA00084B0069007910892099301AA064B13CBC1
:101DB00013C2064C01A906A8A0470028FAD104B016
:101DC00010BC08BC04B01847DC280000190800004B
:101DD00030B587B0264C230010336A4623CB23C28C
:101DE00023CB23C220686168A268E368214CA04726
:101DF000214B5C790022214B1A600132204B1A7072
:101E0000E30632D41C4B1D79197809012B09C91836
:101E10004805400D0B0502D51A4B9C4660441A4BF1
:101E20001880154B5B781B010F222A40D2185105F0
:101E3000490D130502D5134B9C466144134B198081
:101E40000D4B9A7812010F2323409B185A05520D0F
:101E50001B0502D50B4B9C4662440D4B1A80012298
:101E6000064B1A600022064B1A70002007B030BDE6
:101E7000E00600209D1D0000E80500204C01002028
:101E80000100002000F8FFFF340700205C0700205D
:101E90000C070020704700000C4B1B68002B06D17C
:101EA000EFF31083002B07D00022094B1A70074A6A
:101EB000136801331360704772B6BFF35F8F00225F
:101EC000044B1A700132024B1A70F0E7F005002043
:101ED000F405002002000020084B1A68013A1A603D
:101EE0001B68002B09D1064B1B78002B05D0012263
:101EF000044B1A70BFF35F8F62B67047F005002085
:101F0000F40500200200002010B5082803D8800046
:101F10001B4B1B589F46002030E01A4B18692DE0E0
:101F2000194B1B6A9B059B0F1848D84026E0154BA0
:101F3000586923E0134B1B6800209B071ED51249EC
:101F40001022CB681A42FCD00E4B1B685B0701D4F1
:101F50000F4813E000200F4B98470A4B9B681B0467
:101F60001B0C58430AE05023074AD35C00205B0750
:101F700004D5044BD86801E08020000210BDC046A3
:101F8000E8280000F80500200008004000127A0050
:101F9000006CDC026923000070B50C490B6A047800
:101FA000857840780122104080014026B3430343E6
:101FB0002A40D2018020834313430322224012028D
:101FC0000348034013430B6270BDC0460008004045
:101FD000FFFCFFFF082803D88000254B1B589F46B5
:101FE000172044E0234A136A02210B4313620020A6
:101FF0003DE0204A936902210B439361002036E0C3
:102000001C4A138A02210B43138200202FE0194A35
:10201000938A02210B439382002028E016490B6823
:10202000022213430B60134B9A8419000E32CB68C3
:102030001A42FCD0104A91680E4BD96252689A62DB
:1020400000229A8419001032CB681A42FCD00A4B45
:102050001B689BB2074A9384002008E0054944228C
:102060008B5C022003438B54002000E0002070476B
:102070000C29000000080040F805002030B585B0AC
:10208000C222D2001A4B9A601A4A53681E218B430F
:10209000536001236A4613700024174DE0B269466D
:1020A000A8470134182CF9D103A800244470012555
:1020B00085700470114B98470620114B9847114BBF
:1020C0009847114B1C725C729C72DC7201956B46D6
:1020D0005C7006236A4613701472547269460020BD
:1020E0000A4B984700200A4B984705B030BDC046C0
:1020F00000080040004000414D230000991F0000EF
:10210000D51F000015210000000400403921000007
:10211000F1210000064A936908210B4393610122D3
:10212000044B1A7019000B781342FCD17047C0465B
:1021300000040040000C004070B5060004000D785B
:102140002D0205434B78002B02D08023DB021D4378
:102150004B7A002B02D080231B031D4348680128C3
:1021600010D9431E184234D1022830D9022300224C
:1021700001325B009842FBD81202324314008023E4
:102180005B031D430B7A002B02D080239B031D436E
:10219000134A53785BB2002BFBDB124B9847124B70
:1021A0001E700F4A53785BB2002BFBDB0C4B9C601C
:1021B0001A0053785BB2002BFBDB094A536880217D
:1021C00049020B401D435560084B984770BD0022E3
:1021D000D2E70402344380239B021D43D2E7C0466A
:1021E000000C0040991E0000080C0040D91E0000A1
:1021F00010B504000B4A53785BB2002BFBDB0A4B93
:1022000098470A4B1C70074A53785BB2002BFBDBE4
:10221000044A516880235B020B435360044B984788
:1022200010BDC046000C0040991E0000040C004088
:10223000D91E000070B504001A4A53785BB2002B17
:10224000FBDB194B9847194B1C70164A53785BB24D
:10225000002BFBDB134E7068C004C00E144B984774
:102260000500124B1C707668F602F60F114B1C70BD
:102270000C4A53785BB2002BFBDB0A4B9C682402B0
:10228000240C0D4B9847002E07D1012C07D92100B3
:1022900028000A4B9847050001E00134E54028007A
:1022A00070BDC046000C0040991E0000040C0040A8
:1022B000091F0000080C0040D91E0000792500000D
:1022C00010B50400064B9847064B1C70064A53880D
:1022D0008021C9010B435380044B984710BDC04671
:1022E000991E0000020C0040000C0040D91E0000A6
:1022F00010B504000F4B98470F4B1C700F4A5388C2
:102300001B05180F53880E490B40538053880D4905
:102310000B40538011008022D2014B881342FCD124
:1023200006494A8803020648024013434B80064B85
:10233000984710BD991E0000020C0040000C0040A0
:10234000FFF0FFFFFFBFFFFFD91E000010B50C78A4
:1023500024020443024B9847A4B2024B5C8010BD98
:10236000F1220000000C004010B50400064B984715
:10237000064B1C70064B5C882405240F054B9847C0
:102380002000054B984710BD991E0000020C00402C
:10239000000C0040D91E00003522000030B5D37873
:1023A000002B35D11378802B29D01B0680246402A2
:1023B000234354780225AC4306D19478002C20D1D5
:1023C0008024A402234341605478013C012C1CD991
:1023D0000D042D0CA024E4052C431C4384620D0C39
:1023E000D02424062C431C438462D478002C22D1B0
:1023F0005B031CD59378012B1ED0416117E00023AD
:10240000D7E7C024E4022343DDE70D4C2340DFE798
:1024100041600C04240CA023DB05234383620C0CD5
:10242000D0231B0623438362D378002B03D1537838
:10243000013B012B02D930BD8161F8E78160FAE7E9
:10244000FFFFFBFF10B50A00C1090023002904D1DA
:102450004309DB0105498C4663441F2420400121C8
:1024600081401800024B984710BDC046004400410F
:102470009D2300007047000010B5054B9847054BA1
:102480009847054B9847054B9847054B984710BD13
:102490007D200000951E000075240000A5010000AD
:1024A00075240000FEE7000010B5264A264B9A422C
:1024B00011D01A00254B9A420DD2254A03339B1A9C
:1024C0009B0801339B0000221F481E498C588450F2
:1024D00004329A42FAD11F4A1F4B9A420AD2D3437E
:1024E0001D495B1803218B4304339B18002102C252
:1024F0009342FCD1194AFF21194B8B439360FD395C
:1025000090235B00174AD150174B9A7B2E318A4398
:1025100020210A439A739A7B0C218A4308210A439B
:102520009A739A7B03218A4302210A439A730F4AC2
:10253000536880210B4353600D4B98470D4B9847D0
:10254000FEE7C046502900000000002004000020E3
:1025500004000020040000208407002000ED00E0BB
:1025600000000000007000410048004100400041B0
:1025700065280000591D0000002243088B4274D3D7
:1025800003098B425FD3030A8B4244D3030B8B4274
:1025900028D3030C8B420DD3FF22090212BA030C7D
:1025A0008B4202D31212090265D0030B8B4219D35E
:1025B00000E0090AC30B8B4201D3CB03C01A52417E
:1025C000830B8B4201D38B03C01A5241430B8B42C6
:1025D00001D34B03C01A5241030B8B4201D30B03AF
:1025E000C01A5241C30A8B4201D3CB02C01A5241D6
:1025F000830A8B4201D38B02C01A5241430A8B4299
:1026000001D34B02C01A5241030A8B4201D30B0281
:10261000C01A5241CDD2C3098B4201D3CB01C01A9B
:10262000524183098B4201D38B01C01A52414309A5
:102630008B4201D34B01C01A524103098B4201D393
:102640000B01C01A5241C3088B4201D3CB00C01A00
:10265000524183088B4201D38B00C01A5241430878
:102660008B4201D34B00C01A5241411A00D201469D
:10267000524110467047FFE701B5002000F0F0F826
:1026800002BDC0460029F7D076E7704703460B43EA
:102690007FD4002243088B4274D303098B425FD35B
:1026A000030A8B4244D3030B8B4228D3030C8B4287
:1026B0000DD3FF22090212BA030C8B4202D312126D
:1026C000090265D0030B8B4219D300E0090AC30B42
:1026D0008B4201D3CB03C01A5241830B8B4201D3EF
:1026E0008B03C01A5241430B8B4201D34B03C01AD8
:1026F0005241030B8B4201D30B03C01A5241C30A50
:102700008B4201D3CB02C01A5241830A8B4201D3C0
:102710008B02C01A5241430A8B4201D34B02C01AAA
:102720005241030A8B4201D30B02C01A5241CDD24F
:10273000C3098B4201D3CB01C01A524183098B429A
:1027400001D38B01C01A524143098B4201D34B0183
:10275000C01A524103098B4201D30B01C01A5241E6
:10276000C3088B4201D3CB00C01A524183088B426D
:1027700001D38B00C01A524143088B4201D34B0056
:10278000C01A5241411A00D20146524110467047C8
:102790005DE0CA0F00D04942031000D340425340CD
:1027A00000229C4603098B422DD3030A8B4212D38D
:1027B000FC22890112BA030A8B420CD389019211BF
:1027C0008B4208D3890192118B4204D389013AD0FC
:1027D000921100E08909C3098B4201D3CB01C01AD1
:1027E000524183098B4201D38B01C01A52414309E4
:1027F0008B4201D34B01C01A524103098B4201D3D2
:102800000B01C01A5241C3088B4201D3CB00C01A3E
:10281000524183088B4201D38B00C01A5241D9D256
:1028200043088B4201D34B00C01A5241411A00D2D7
:102830000146634652415B10104601D34042002BD3
:1028400000D54942704763465B1000D3404201B552
:10285000002000F005F802BD0029F8D016E7704707
:102860007047C04670B500260C4D0D4C641BA4107B
:10287000A64209D1002600F05BF80A4D0A4C641B01
:10288000A410A64205D170BDB300EB58984701369D
:10289000EEE7B300EB5898470136F2E73C29000019
:1028A0003C2900003C2900004029000001000000F4
:1028B00002000000040000000800000000100000FA
:1028C0000020000000400000008000000000010027
:1028D0000000020000000400000008005E00060086
:1028E000E8050020000000001A1F0000161F00006D
:1028F000161F0000781F0000781F00002E1F000028
:10290000201F0000341F0000661F00000020000090
:10291000E01F0000E01F00006C200000F21F00001C
:102920000E200000E41F00001C2000005C200000BE
:10293000F8B5C046F8BC08BC9E467047B50000001C
:10294000F8B5C046F8BC08BC9E4670478D00000034
:042950000101010080
:04000003000024A92C
:00000001FF
