:10000000A0070020F5250000F1250000F1250000E3
:1000100000000000000000000000000000000000E0
:10002000000000000000000000000000F1250000BA
:100030000000000000000000F1250000F125000094
:10004000F1250000F1250000F1250000F125000058
:1000500039010000F1250000F1250000000000003A
:10006000F12500005915000069150000000000008E
:1000700099100000F113000001140000F1250000A8
:10008000F1250000F1250000F125000010B5064C17
:100090002378002B07D1054B002B02D0044800E049
:1000A00000BF0123237010BD0400002000000000E9
:1000B000A42A0000084B10B5002B03D007490848BC
:1000C00000E000BF07480368002B00D110BD064BBD
:1000D000002BFBD09847F9E7000000000800002043
:1000E000A42A0000A42A0000000000001723002A10
:1000F00001D0180070478B00064A9B58002B03D094
:10010000834205D01D23F4E7890088500023F0E7DF
:100110000023EEE72C0200201723002901D018004D
:10012000704700221F2800D8024A01238340D36071
:100130000023F4E70018004070B50022104B1A703D
:10014000002310491F25104E0D4C0AE00D4908E010
:1001500023780133DBB223700F2B10D800211F2B23
:10016000F4D9280018400122824008691042EFD0DB
:100170000A619B009B59002BEAD09847E8E770BDC5
:1001800028020020001800402C020020044A1378A6
:1001900002210B43137053785BB2002BFBDB7047DB
:1001A0000018004000B583B0124A936940210B4308
:1001B000936101A900230B7005200F4B9847052080
:1001C0000E4B98470E4A137801210B431370537856
:1001D0005BB2002BFBDB0B4B19004031002204C348
:1001E0009942FCD11022084B1A60084B984703B083
:1001F00000BDC04600040040992400000D2400000A
:10020000001800402C02002000E100E08D010000F9
:100210000023036043600122027242728372023340
:10022000C3727047F0B583B005000C0001A900232C
:100230004B70CB7023790B70237A8B702078154B21
:10024000984700201F2D00D8134807222A4092000B
:10025000E77AA37A002B01D008231F43EB089B0009
:10026000C31899690F269640B14397403A000A4354
:100270009A61637A002B06D143690122AA40934315
:10028000436103B0F0BD42690123AB4013434361B6
:10029000F7E7C046912500000018004000B583B084
:1002A00001AB80221A700A785A704A789A708A785C
:1002B000DA701900014B984703B000BD912500008A
:1002C00001680722CB691A42FCD17047F0B5CE46CF
:1002D000474680B583B007000D001600396008005E
:1002E0007B4B98477B4A116A841C0123A3400B4334
:1002F000136201A9337B0B700E30C4B22000764B21
:1003000098472000754B9847307B0021744B9847E5
:100310002B681C209B0704D503B00CBC9046994663
:10032000F0BD2B681738DB07F6D43868684B984661
:10033000984704006B496C4B9847A4006B4BE750FF
:1003400000233B767B76002291467B83BB8325226C
:100350004946B9543B6214332B603C682000C047C7
:10036000804680236A4613706B464A465A700123C2
:100370006A4693706B464A46DA70F069356A00281F
:1003800077D06B46187002236A465370000CC0B2D7
:100390006946574B9847002D70D06B461D7002235D
:1003A0006A465370280CC0B26946514B9847B38ACD
:1003B000FB80F38A3B81337E8022002B04D14D4B9E
:1003C0009B789B07DB0FDA01B16833690B4313435A
:1003D0002422B25C002A02D08022D2051343B26AE2
:1003E00013432C22B25C002A03D180229204914252
:1003F00002D18022120513432D22B25C002A02D0C2
:100400008022120413432E22B25C002A02D08022E2
:10041000D203134322681343236080235B0063608D
:1004200045460E35E8B2344B984707007368984646
:10043000FA21C90033685943304BC818C019304BF2
:100440009847050080239B04B2689A421CD0402044
:10045000FF2D00D960E700260020FF232B40360641
:1004600033430004FF22120410400343E3600020E2
:1004700052E700212000234B984782E7012120000A
:10048000204B9847050088E7FA21890043464B43F3
:100490009846780059004144194B9847461E002E53
:1004A0000BD041463800164B98470238801BFF2D71
:1004B0000BD8FF28D1D940202EE743465900481ECB
:1004C000C0190F4B98470138F1E7402024E7C04698
:1004D000DD14000000040040992400000D240000F9
:1004E00011140000310900000515000078020020F9
:1004F0009125000000200041B5240000BF96B8FF00
:10050000C52600005D14000003681A7E920707D517
:1005100002221A765B8B9B074120DB17184070473D
:100520005A8B520706D55968C02292020A435A6074
:100530001820F4E70020F2E730B502680023012418
:100540000225117E21420BD1117E294206D10133B1
:100550009BB201899942F4D8122002E0002000E009
:10056000002030BD10B5046862688023DB021343AD
:1005700063606162024B98470123237610BDC04639
:1005800039050000F0B5DE4657464E464546E0B513
:1005900083B00600894605684C882B681B01DB0F79
:1005A0009A464B7A002B2BD16B68584A13406B60EC
:1005B0004B461B7A002B27D14B461B885B004A46D3
:1005C000527A92031343012213436B623000504B63
:1005D000984701905346002B03D04B465B88012B74
:1005E0003BD06B68494A13406B60019B002B3AD0AB
:1005F000019803B03CBC90469946A246AB46F0BD7C
:10060000897A444B9847CFE74B461B885B004A46A4
:10061000527A920313438022120213436B6230001A
:100620003B4B984701906B68384A13406B60002839
:10063000DED13000384B984701900028D8D14B4686
:100640001B881B0A782213435B004A46527A9203A6
:1006500001210A4313436B62B8E76A688023DB0217
:1006600013436B60C1E730002B4B98470190002883
:10067000BED1013CA4B28046284B9B4615E0012C1C
:1006800020D03000264B984743465F1CBFB228233A
:10069000EB5C4A4652684146535430001C4B984725
:1006A000013CA4B2002815D1B8465C4514D06B8B30
:1006B0009B0627D5F37A002BE3D05346002BDED1DF
:1006C000002CDED16A688023DB0213436B60013C9F
:1006D000A4B2EAE7B8460190B37A002B09D1300002
:1006E0000F4B98472823EA5C4B465B6841465A54B7
:1006F0007EE730000A4B98476A68C0239B02134389
:100700006B60ECE74123019372E7C046FFFFFBFFFC
:10071000390500006505000009050000FFFF000025
:10072000C1020000F0B5DE4657464E464546E0B5EC
:1007300083B006000F0005684C88324B98477B7ADF
:10074000002B1DD16B68304A13406B603B7A002B45
:100750001BD03B885B007A7A9203134380221202FB
:1007600013436B623000294B98470190002813D047
:10077000019803B03CBC90469946A246AB46F0BDFA
:10078000B97A3000224B9847DCE73B885B007A7AE5
:10079000920313436B62E5E730001E4B9847031E3C
:1007A0000190E5D1A046002420339946154B9B4685
:1007B000164B9A46444515D06B8B4A4613421DD0C2
:1007C0003000D8477B681A5D2823EA543000D047B0
:1007D000002806D16B8B01345B07EBD51E230193F8
:1007E00000E00190B37A002BC2D03000054B98474F
:1007F0006A68C0239B0213436B60B9E741230193EE
:10080000B6E7C046C1020000FFFFFBFF390500004C
:10081000650500000905000010B5838B9BB2052219
:10082000002B01D0100010BD01338372C372024B44
:1008300098470200F6E7C0468505000010B5838B97
:100840009BB20522002B01D0100010BD0133837232
:10085000C372024B98470200F6E7C0462507000026
:1008600001680722CB691A42FCD1704770B50400B9
:1008700006683268458B838BED1AADB2838B013BE2
:100880009BB2838313011DD5C37A002B03D0838BC6
:100890009BB2012B10D0A38B9BB2002B02D1A37A69
:1008A000002B1CD12000124B9847236A5D19282386
:1008B000F35CDBB22B7070BD72688023DB021343E4
:1008C0007360E8E7C37A002BE5D0838B9BB2002BE3
:1008D000E1D172688023DB0213437360DBE7200001
:1008E000034B98477268C0239B0213437360D9E798
:1008F0006108000070B5040005686B8B5B0703D5C9
:100900001E222523C25470BD468B838BF61AB6B2C5
:10091000838B013B9BB28383044B9847236A9E19C8
:100920003378DBB22822AB54EDE7C0466108000003
:1009300070B58000754BC45825682B681B01DA0F11
:10094000637E267E1E40638B9BB2002B03D1A38B5C
:100950009BB2002B23D1638B9BB2002B08D0A38BBF
:100960009BB2002B04D12533E35C052B00D16DE055
:10097000638B9BB2002B24D0A38B9BB2002B20D087
:100980006B8B9B0600D581E0002A04D0A38B9BB221
:10099000012B00D17AE041222523E25411E02B7E85
:1009A000DB0707D501232B766B8B9B072ED54122C6
:1009B0002523E254A38B9BB263832523E35C052BA1
:1009C00038D0638B9BB2002B07D0A38B9BB2002B3C
:1009D00003D12533E35C052B64D02523E35C052B91
:1009E00013D02523E35C002B0FD003232B750023AA
:1009F0006383A3832533E35C412B03D0A37A002BCD
:100A000000D075E0730700D57BE070BD6B8B5B0792
:100A1000D0D518222523E2540023A383A37A002BE8
:100A2000C8D020003A4B98476A68C0239B02134302
:100A30006B60BFE71F33E35C002B03D02000354B16
:100A40009847BEE72000344B9847BAE71F33E35C72
:100A5000002B00D08CE703332B75002363832533F1
:100A60000022E254A37A002B07D101232B76F3074F
:100A7000A7D5E36820009847A3E72000244B9847B8
:100A80006A68C0239B0213436B60F0E72423E35C96
:100A9000002B03D12000204B984792E720001D4BEC
:100AA00098478EE71F33E35C012B96D12B7E9B0783
:100AB00001D502232B7603232B7500236383253373
:100AC0000022E254B30703D52423E35C012B0BD0AF
:100AD000F30700D481E72423E35C002B00D07CE7FC
:100AE000E3682000984778E723692000984774E777
:100AF0002000074B98476A68E023DB0213436B60D2
:100B000080E76369200098477FE7C04678020020AD
:100B1000610800006D080000F50800000020704723
:100B200030B504001720032900D930BD114DAA4269
:100B3000FBD82068002B10D0802464028C40036B0B
:100B40001C42FCD1802424038C4083681C42FCD1CD
:100B50001C3189000A500020E7E7802464008C40A3
:100B600083681C42FCD11031890041184A60002082
:100B7000DBE7C046FFFFFF00002303604C4A4260F2
:100B80008372C372037343720372C361036243626D
:100B90008362037543758375C37503764376037467
:100BA00043748374C3742C228354013283540132FE
:100BB000835401328354013283540132835401320D
:100BC00083540132835401328354013283540132FD
:100BD00083540132835401328354013283540132ED
:100BE00083540132835401328354013283540132DD
:100BF00083540132835401328354013283540132CD
:100C000083540132835401328354013283540132BC
:100C100083540132835401328354013283540132AC
:100C2000835401328354013283540132835401329C
:100C3000835401328354013283540132835401328C
:100C4000835401328354013283540132835401327C
:100C50008354013283544132835483658367013264
:100C60008354C365C3670132835403661A3A8350C1
:100C70001B3283544366173A835018328354836679
:100C8000143A835015328354C366113A835012329A
:100C9000835403670E3A83500F32835443670B3AF1
:100CA000835001210C328154013283547047C04675
:100CB000FFFFFF00F0B5DE4657464E464546E0B51D
:100CC0008DB006000C0015000800CD4B98470300BE
:100CD000CC490A6A202002430A622268043892073B
:100CE00006D50DB03CBC90469946A246AB46F0BD39
:100CF000226801271740F4D1C34A05382968914278
:100D0000EFD869689142ECD8E969914200D98BE14A
:100D1000296A914200D989E1696A914200D987E143
:100D2000A96A914200D985E12A7C013A504250419A
:100D3000020601926A7C012A31D0AA7C012A34D0B1
:100D4000EA7C012A37D0A122AA5C002A04D08022A2
:100D500012010199114301912A7A511E8A41920090
:100D600003926A7A012A2CD03522AA5C032A00D980
:100D700062E12C21695C0F2900D95DE1287B049098
:100D8000E87A05902D208246AA44002002978446E6
:100D900006960E00A0465446A946079347E08022D7
:100DA0009204019911430191C7E78022D20401996D
:100DB00011430191C4E78022120501991143019169
:100DC000C1E7039911430391CEE79202C0252D019B
:100DD0002A4032430D7903262E40324355462A439A
:100DE0004E797601602535402A438D792D02C02643
:100DF000B60035402A43CD792D03E026F601354073
:100E00002A43104303431F4308AB624608201B18C4
:100E10009F50042A28D08A7C032A00D90CE14E7AFC
:100E20000A3404239A46D4440F2E00D904E136062E
:100E3000F0231B051E40210025782D04FF231B04F1
:100E40001D40AA4663788020002B00D102988F783D
:100E50000823002F00D1029BCF78BB4610275D46A8
:100E6000002DB2D1029FB0E7069E44464D46079B37
:100E70004846503049464131002280277F02BC4617
:100E80000127B9460227FF37BA461F001300A046C4
:100E90003C0007E0574697403B43013201300231A6
:100EA000082A0ED00778002F02D0674697403B43B0
:100EB0000F78002FF1D0022FECD04F4697403B43E4
:100EC000EBE722004446984613006A7E1201302167
:100ED0001140287E07220240114300228020400258
:100EE0000F0002E00132042A07D0A918097D002969
:100EF000F8D0010091400F43F4E7B946321D3000AD
:100F00003430002102C29042FCD100227263B263ED
:100F10009B003E4A9E503460A023EA5C643BF2543E
:100F200009A9AB7A0B701120394B98471120394B26
:100F300098472F0098372E00583678239A46AA44AF
:100F4000773B9B46230054469A4603E0013704361C
:100F5000B44214D03B78002BF8D008AB5A469A70B4
:100F6000002308AAD37013002022B21812781A7036
:100F70005A465A7030781900274B9847E6E754468E
:100F8000049B1B03059A12021343019A1343236027
:100F90000422A3681A42FCD1FF2323710422A36810
:100FA0001A42FCD16B461B7B63710A9BE3600B9B6F
:100FB00023614346A361194AA3681342FCD14B46FF
:100FC000E3631022A3681A42FCD12B686363144ABE
:100FD000A3681342FCD16B6823641C3500211148BF
:100FE00002008A40A3681A42FCD104CD0B001033E2
:100FF0009B00E3185A6001310429F1D1002070E60A
:101000001D0B000000040040FFFFFF006C020020E9
:10101000992400000D2400009125000040000200EA
:10102000800004000001080017205AE6172058E647
:10103000172056E6172054E6172052E610B53C2339
:10104000C35C014CA04710BD210B0000F0B5C646A3
:1010500000B580000E4BC7583B68DE6ABB6B7A6BED
:1010600013401E4000240B4B984602E00434302C01
:101070000AD04346E5583542F8D03B195B68380042
:1010800098473B68DD62F1E704BC9046F0BDC0467E
:101090006C020020F829000010B50020014B984791
:1010A00010BDC0464D100000064B984208D0064ABD
:1010B0000023904201D0180070470133DBB2FAE7F9
:1010C0000023FBE700180042001C0042F0B585B089
:1010D00004000D0016000800824B9847070003AB80
:1010E00012221A705A7002AB2E321A8040325A8085
:1010F0000023A360E360236163612376637682004B
:10110000794BD4502560B378082B06D023712B88F7
:101110000520DB0705D505B0F0BD1720FA07FAD486
:10112000F4E7EB7B1730DB06F5D42B889B07F2D472
:10113000337C002B00D07AE0337F002B00D082E09C
:101140006A49086A7A0002ABD35A03430B62B37848
:10115000082B00D187E033786A46137003ABDF5D5C
:1011600069463800624B98473800624B984731898E
:10117000B3880B43B178B279114319437378002BCC
:1011800002D080231B0119432268D37B5BB2002B62
:10119000FBDB2980717B4B1E99418900B37B002BBF
:1011A00001D0012319432268D37B5BB2002BFBDB08
:1011B000FF232B71002905D02268D37B5BB2002B63
:1011C000FBDB6971B17AF37A002B01D0102319434C
:1011D000337B002B01D0202319432268D37B5BB2E1
:1011E000002BFBDBA9712268D37B5BB2002BFBDBFE
:1011F0002379042B3FD0082B5ED01720002B00D082
:1012000089E7D37B5BB2002BFBDB338D2B8222681B
:10121000D37B5BB2002BFBDB738D2B832268D37BEC
:101220005BB2002BFBDBB38D6B83002073E701A95E
:1012300001238B700022CA70327E0A704B70307DA1
:101240002D4B984778E701A901238B700022CA70C3
:101250002432B21812780A704B701F33F3181878C2
:10126000254B98476CE7086A7A1C520002ABD35AA8
:1012700003430B626FE7D37B5BB2002BFBDB2823BE
:10128000F35C2B742268D37B5BB2002BFBDB29233E
:10129000F35C2B752268D37B5BB2002BFBDB2A232C
:1012A000F35C2B762268D37B5BB2002BFBDB2B231A
:1012B000F35C6B7600202EE7D37B5BB2002BFBDB6D
:1012C000B36A2B612268D37B5BB2002BFBDBF36A32
:1012D000AB612268D37B5BB2002BFBDB336BEB6132
:1012E000002018E7A9100000700200200004004050
:1012F000992400000D240000912500000268D37B92
:101300005BB2002BFBDB0379042B05D0082B0BD041
:101310001720002B04D07047C9B211740020FAE7DF
:1013200089B211820020F6E711610020F3E702681C
:10133000D37B5BB2002BFBDB0379042B05D0082B9E
:1013400009D00020002B03D07047107CC0B2FBE70F
:10135000108A80B2F8E71069F6E7931C9B001950D9
:10136000022A09D0032A0CD0012393401A00037EDD
:101370001343037600207047037E10221343037645
:10138000F8E7037E202213430376F3E770B580006D
:10139000164BC45823689D7B227E637E13401D40FC
:1013A000EB0706D4AB070BD4EB0610D4AB0615D471
:1013B00070BD2000A3689847012322689373F1E76A
:1013C0002000E3689847022322689373ECE720002B
:1013D00023699847102322689373E7E72000636925
:1013E0009847236820229A73E2E7C04670020020E3
:1013F00010B50020014B984710BDC0468D1300006A
:1014000010B50120014B984710BDC0468D13000058
:1014100010B582B004000E4B1B78002B07D00029BA
:1014200005D10B4B5B78834210D01D200CE001A945
:101430000C700D20074B98470D20074B9847044B25
:101440005C7001221A70002002B010BD0020FBE782
:1014500020000020992400000D240000154B984224
:1014600004D0154B984211D000207047012907D0B5
:1014700000291BD0022905D0032905D00020F4E75C
:101480000E48F2E70E48F0E70E48EEE7012907D0D4
:1014900000290DD0022905D0032905D00020E4E75A
:1014A0000948E2E70948E0E70948DEE70948DCE7E0
:1014B0000948DAE700080042000C004202000F0071
:1014C000030008000300090002001F0002001800CA
:1014D0000200190002000E0002001E00064B984296
:1014E00008D0064A0023904201D01800704701330B
:1014F000DBB2FAE70023FBE700080042000C0042E1
:101500007047000030B5094B1B78002B0AD1084CFE
:10151000084D2560084B00221A6065605A60013250
:10152000024B1A708000024BC15030BD22000020D7
:1015300024000020011500007802002010B582B0C0
:1015400001AC0923237001336370024B9847205686
:1015500002B010BDDD14000010B5024B1B68002066
:10156000984710BD2400002010B5024B5B68012095
:10157000984710BD2400002070B51C4B1B78002B31
:101580001BD11B4D2C681B481B4B9847A4001B4BC1
:10159000E0500122154B1A70194B9A6919490A40FB
:1015A0009A619969802252050A439A612B68013336
:1015B0000A2B14D00E4A136010E000210D48124B84
:1015C00098470F4B9A690F490A409A61996980229E
:1015D00092050A439A610022044B1A7070BD0022E2
:1015E000034B1A600132094B1A70F7E70000002024
:1015F0002C000020800200202F1300009401002006
:1016000000180040FFFFFF8FFD1200009001002036
:1016100010B58EB001AA002300211370937093714E
:101620001381002050709172D172117391735173B4
:10163000117453619361117713625362138553855B
:101640009385A023DB009380074C08492000084BBA
:1016500098472268D37B5BB2002BFBDB1388022107
:101660000B4313800EB010BD80020020001C00420E
:10167000CD10000010B584B001AC2000084B984795
:101680000923019390231B03636002232372013B10
:10169000E37221000720034B984704B010BDC046F9
:1016A000110200002502000010B5002207210448A5
:1016B000044B984700210720034B984710BDC046B4
:1016C00079150000ED0000001901000010B5034B72
:1016D0009847034B9847034B984710BD11160000DD
:1016E00075160000A916000070B584B0160001AB95
:1016F0005E221A805980029000221A725A729A72DF
:10170000044D054C01A93000A84720700028F9D1EC
:1017100004B070BD3D0800002003002070B58EB0FD
:1017200001AB244A0292002203921A731A76012115
:10173000494299820892099225315A540B920831F4
:101740005A5401315A5401315A54D7321A861A4A1E
:10175000DA82C82252000192C02292030592174EEB
:10176000174D184C01AA18493000A84720700028CE
:10177000F8D1124B1C680722E3691A42FCD1236896
:101780000222134323600D4D2868104B98471F23F6
:1017900018401E3B83400E4A1360E8880023102146
:1017A000628B0A4204D101338342F9D3102363834D
:1017B0000EB070BD480D0000409CFFFFF8020020F5
:1017C000CD02000020030020000800423D1500006B
:1017D00000E100E000B583B001A8002303700222FD
:1017E000427083708033C370024A0421024B9847D1
:1017F00003B000BDF8020020E916000010B5024B4E
:101800009847024B984710BD1D170000D5170000E0
:1018100010B5014B984710BDFD17000010B58EB0F4
:1018200001AA0023002113709371138100205070CE
:101830009172D172117391735173117453619361E9
:101840001177136253621385538593850433937024
:10185000C0239B00938055212923D154074C08496C
:101860002000084B98472268D37B5BB2002BFBDB40
:10187000138802210B4313800EB010BDDC02002040
:1018800000180042CD10000010B50C4C00220C498D
:1018900020000C4B984720680B4B98470B4B1A5C69
:1018A0001F231340012211009940094B1960637EE8
:1018B00001210B43637623685A7310BDDC020020BC
:1018C000791F00005B130000A9100000282A000007
:1018D00000E100E010B5024B9847024B984710BD5D
:1018E0001D1800008918000030B583B001AC012339
:1018F00063700022A270237021001920094DA847AF
:1019000021001820A84721000820A847064B802264
:1019100092049A61802252049A61802252009A6154
:1019200003B030BD9D0200000044004170B5AAB074
:10193000174E01AC31002000164B98470623E37286
:10194000F9336360FD3B2376002323756375E36100
:101950000122982162549439A1650F49A16723623D
:101960009933E254943BE3650C4BE3670C4D220042
:10197000310028000B4B98472A68022193681942CE
:10198000FCD1136802210B4313602AB070BDC0461E
:1019900000140042790B000005000400050005005A
:1019A0009C020020B50C000010B5024B9847024B7A
:1019B000984710BDE91800002D19000070B50C0003
:1019C00000280AD00A4E002200213000094DA84705
:1019D000220001213000A84770BD054D0A000021FA
:1019E0002800044CA047002201212800A047F3E76B
:1019F0009C0200203D100000F0B5D6464F464646FA
:101A0000C0B5AEB0814600230593049303933B4ACF
:101A100013601368042B0FDC13001AA8002406A916
:101A20001A68920014501A68920054501A680132D1
:101A30001A601A68042AF3DD00239C462F4B98464F
:101A40001C00180006AD1A001EE013680133136075
:101A50001668059B9E420ED223689B005B589F42EE
:101A6000F3D103680668B600765901369B005E51D3
:101A700000230193E9E7019B002B14D101239A462F
:101A8000D4446346052B1AD04346002119601968D7
:101A9000059B994207D263469B004946CF580123D4
:101AA00001931AA9D8E7059B9B0049465E586346F7
:101AB0009B001AA95E50059B01330593DEE7059B49
:101AC000002B0FD00020002306A903E00133059A64
:101AD000934207D29A0052588242F7D304939A0055
:101AE0005058F3E7049B9B001AAA9B580393039852
:101AF0002EB01CBC90469946A246F0BD580100206D
:101B000010B588421ED9401AC317C01858408C23FC
:101B10005B000124984203DD8C218900081A00240F
:101B200064281DD8E62148433231104B9847642879
:101B300000D26420E62800D9E620C1B220000C4B78
:101B4000984710BD401AC317C01858408C235B003B
:101B500000249842E4DD8C218900081A0124DFE783
:101B6000E6212000024B9847EBE7C046C52600005F
:101B7000BD19000082B001900091224A1368013320
:101B80001360019A002A02DB009A002A15DB019AF1
:101B9000002A17DB009A002A14DB019A8F214900E2
:101BA000891A9A0018481150052B26D0154B1B682E
:101BB0009B00154A985802B0704701989A00124944
:101BC0005050F1E7019A002A0ADB019AD117521806
:101BD0004A408F218900891A9A000B481150E3E787
:101BE000009A002AF1DB019AD11752184A401F329D
:101BF000FF32990004480A50D6E70022014B1A60D0
:101C0000D4E7C0464801002060010020F8B5040078
:101C1000624B1B68012B00D0F8BD614B0027DF5FD2
:101C2000604B00229A5E944600225C4B1A600823A7
:101C30005D485E499A1E855E1D528D5E5D52131E83
:101C4000F8D15B4B1B78002B20D0FA17BB18534000
:101C5000554A0021525ED11752184A409B1A093347
:101C6000122B01D8504B1F806346DA179B18534044
:101C70004E4A0021525ED11752184A409B1A09332E
:101C8000122B08D8494B62461A8004E0464B1F804D
:101C9000464B62461A80474B1D68434A0821535EF3
:101CA0009800C01840000623D15E0B015B1AC018D3
:101CB0000423D15E8B005B189B00C0180223D15E09
:101CC0008B005B1899005B18C0180023D25E1301CB
:101CD0009B1A5B00C018384F6421B847AE00374BE1
:101CE000F050324A0821535E9800C0184000062385
:101CF000D15E0B015B1AC0180423D15E8B005B1808
:101D00009B00C0180223D15E8B005B1899005B1802
:101D1000C0180023D25E13019B1A5B00C018642117
:101D2000B847274BF050224B1B78002B1FD0234B7A
:101D3000F058234BF158234B9847234B18601B68EE
:101D40001B1BDA179B185340012B05DD1E4B18682F
:101D500021001E4B98475FE701221D4B1A600022AD
:101D6000134B1A70002100201A4B984754E7AB0020
:101D7000124A9858124A9958124B9847124B1860B9
:101D800001350C4B1D60062D00D045E70122084BA4
:101D90001A700022074B1A603EE7C046500100202F
:101DA0004C03002074030020D4010020E80100202F
:101DB000540100204C010020D927000030000020F1
:101DC000BC000020751B000088010020011B0000E2
:101DD000D0010020BD19000010B5084B1B78002B66
:101DE00002D1074B186810BD0022044B1A70054839
:101DF000054B9847024B1860F3E7C046900100205E
:101E00005C01002094010020F919000070B5040065
:101E10000A4B1B68C31ADA179B185340022B0BDDC1
:101E20000022074B1A60054B1860064E044D200037
:101E3000B0472B68002BFAD070BDC0468C01002043
:101E4000D00100200D1C000070B50A4B98470A4BCA
:101E500098470A4B98470A4B98470122094B1A703A
:101E6000BFF35F8F62B6084B9847084D084CA847F0
:101E7000A047FCE7C5250000A919000011180000C3
:101E8000D518000001000020CD160000D91D00006B
:101E90000D1E000084B010B584B006900791089222
:101EA000099301AA064B13CB13C2064C01A906A83D
:101EB000A0470028FAD104B010BC08BC04B01847F1
:101EC0002C2A00001908000030B587B0224C2300EE
:101ED00010336A4623CB23C223CB23C22068616818
:101EE000A268E3681D4CA0471D4B5C79E3062FD424
:101EF0001B4B1D79197809012B09C9184805400D9C
:101F00000B0502D5174B9C466044174B1880144BA9
:101F10005B781B010F222A40D2185105490D130589
:101F200002D5104B9C466144104B19800C4B9A789B
:101F300012010F2323409B185A05520D1B0502D591
:101F4000084B9C4662440A4B1A800122094B1A60D6
:101F5000002007B030BDC046F8020020951E0000EA
:101F6000FC01002000F8FFFF4C0300207403002058
:101F7000240300205001002070B5134C0125236874
:101F80001D73637EAB436376104B98472068104BFC
:101F90009847104B1A5C1F2313402A009A400E4B9F
:101FA0001A60637E01221343637623685D730B4BD3
:101FB0001B8801339BB2FF2B02D0084A138070BDEF
:101FC0000022064B1A80FAE7DC020020C91E00003E
:101FD000A9100000382A000000E100E004020020FF
:101FE000704700000C4B1B68002B06D1EFF31083E9
:101FF000002B07D00022094B1A70074A13680133DF
:102000001360704772B6BFF35F8F0022044B1A70E3
:102010000132024B1A70F0E7080200200C02002087
:1020200001000020084B1A68013A1A601B68002B57
:1020300009D1064B1B78002B05D00122044B1A70E6
:10204000BFF35F8F62B67047080200200C020020C9
:102050000100002010B5082803D880001B4B1B5836
:102060009F46002030E01A4B18692DE0194B1B6A7F
:102070009B059B0F1848D84026E0154B586923E074
:10208000134B1B6800209B071ED512491022CB68FA
:102090001A42FCD00E4B1B685B0701D40F4813E0BB
:1020A00000200F4B98470A4B9B681B041B0C58439E
:1020B0000AE05023074AD35C00205B0704D5044B99
:1020C000D86801E08020000210BDC0463C2A000014
:1020D000100200200008004000127A00006CDC02B0
:1020E000B524000070B50C490B6A047885784078F7
:1020F0000122104080014026B34303432A40D2010D
:1021000080208343134303222240120203480340EA
:1021100013430B6270BDC04600080040FFFCFFFF88
:10212000082803D88000254B1B589F46172044E001
:10213000234A136A02210B43136200203DE0204A28
:10214000936902210B439361002036E01C4A138AF5
:1021500002210B43138200202FE0194A938A0221A7
:102160000B439382002028E016490B680222134398
:102170000B60134B9A8419000E32CB681A42FCD0C4
:10218000104A91680E4BD96252689A6200229A8472
:1021900019001032CB681A42FCD00A4B1B689BB264
:1021A000074A9384002008E0054944228B5C022002
:1021B00003438B54002000E000207047602A000099
:1021C000000800401002002030B585B0C222D200C5
:1021D0001A4B9A601A4A53681E218B43536001239D
:1021E0006A4613700024174DE0B26946A8470134CF
:1021F000182CF9D103A800244470012585700470BF
:10220000114B98470620114B9847114B9847114B9B
:102210001C725C729C72DC7201956B465C700623CA
:102220006A46137014725472694600200A4B98472C
:1022300000200A4B984705B030BDC046000800405A
:102240000040004199240000E52000002121000009
:102250006122000000040040852200003D230000B0
:10226000064A936908210B4393610122044B1A70BB
:1022700019000B781342FCD17047C046000400409F
:10228000000C004070B5060004000D782D020543D7
:102290004B78002B02D08023DB021D434B7A002BAE
:1022A00002D080231B031D434868012810D9431E18
:1022B000184234D1022830D90223002201325B00B7
:1022C0009842FBD812023243140080235B031D4363
:1022D0000B7A002B02D080239B031D43134A5378B3
:1022E0005BB2002BFBDB124B9847124B1E700F4A60
:1022F00053785BB2002BFBDB0C4B9C601A005378CD
:102300005BB2002BFBDB094A5368802149020B407A
:102310001D435560084B984770BD0022D2E7040268
:10232000344380239B021D43D2E7C046000C00408B
:10233000E51F0000080C00402520000010B5040037
:102340000B4A53785BB2002BFBDB0A4B98470A4BD6
:102350001C70074A53785BB2002BFBDB044A5168C0
:1023600080235B020B435360044B984710BDC0466B
:10237000000C0040E51F0000040C00402520000078
:1023800070B504001A4A53785BB2002BFBDB194B83
:102390009847194B1C70164A53785BB2002BFBDB35
:1023A000134E7068C004C00E144B98470500124BC2
:1023B0001C707668F602F60F114B1C700C4A5378AD
:1023C0005BB2002BFBDB0A4B9C682402240C0D4BF8
:1023D0009847002E07D1012C07D9210028000A4B6D
:1023E0009847050001E00134E540280070BDC04673
:1023F000000C0040E51F0000040C004055200000C8
:10240000080C004025200000C526000010B504007F
:10241000064B9847064B1C70064A53888021C90119
:102420000B435380044B984710BDC046E51F000086
:10243000020C0040000C00402520000010B50400F4
:102440000F4B98470F4B1C700F4A53881B05180FF2
:1024500053880E490B40538053880D490B405380DD
:1024600011008022D2014B881342FCD106494A88D0
:1024700003020648024013434B80064B984710BDA9
:10248000E51F0000020C0040000C0040FFF0FFFFC1
:10249000FFBFFFFF2520000010B50C782402044385
:1024A000024B9847A4B2024B5C8010BD3D24000053
:1024B000000C004010B50400064B9847064B1C70FA
:1024C000064B5C882405240F054B98472000054BDC
:1024D000984710BDE51F0000020C0040000C0040B2
:1024E000252000008123000030B5D378002B35D1A2
:1024F0001378802B29D01B06802464022343547850
:102500000225AC4306D19478002C20D18024A4026B
:10251000234341605478013C012C1CD90D042D0C3F
:10252000A024E4052C431C4384620D0CD024240613
:102530002C431C438462D478002C22D15B031CD52D
:102540009378012B1ED0416117E00023D7E7C02408
:10255000E4022343DDE70D4C2340DFE741600C0438
:10256000240CA023DB05234383620C0CD0231B0621
:1025700023438362D378002B03D15378013B012B93
:1025800002D930BD8161F8E78160FAE7FFFFFBFF08
:1025900010B50A00C1090023002904D14309DB0159
:1025A00005498C4663441F242040012181401800C6
:1025B000024B984710BDC04600440041E92400008A
:1025C0007047000010B5054B9847054B9847054BE1
:1025D0009847054B9847054B984710BDC921000007
:1025E000E11F0000C1250000A5010000C125000079
:1025F000FEE7000010B5264A264B9A4211D01A0079
:10260000254B9A420DD2254A03339B1A9B0801336E
:102610009B0000221F481E498C58845004329A4265
:10262000FAD11F4A1F4B9A420AD2D3431D495B1865
:1026300003218B4304339B18002102C29342FCD137
:10264000194AFF21194B8B439360FD3990235B009E
:10265000174AD150174B9A7B2E318A4320210A43C7
:102660009A739A7B0C218A4308210A439A739A7BB6
:1026700003218A4302210A439A730F4A5368802137
:102680000B4353600D4B98470D4B9847FEE7C046F0
:10269000A42A000000000020040000200400002004
:1026A000040000209C03002000ED00E0000000007A
:1026B000007000410048004100400041B129000085
:1026C000491E0000002243088B4274D303098B4249
:1026D0005FD3030A8B4244D3030B8B4228D3030CF2
:1026E0008B420DD3FF22090212BA030C8B4202D394
:1026F0001212090265D0030B8B4219D300E0090ABC
:10270000C30B8B4201D3CB03C01A5241830B8B42C4
:1027100001D38B03C01A5241430B8B4201D34B03AD
:10272000C01A5241030B8B4201D30B03C01A524112
:10273000C30A8B4201D3CB02C01A5241830A8B4297
:1027400001D38B02C01A5241430A8B4201D34B0280
:10275000C01A5241030A8B4201D30B02C01A5241E4
:10276000CDD2C3098B4201D3CB01C01A5241830998
:102770008B4201D38B01C01A524143098B4201D3D2
:102780004B01C01A524103098B4201D30B01C01AFD
:102790005241C3088B4201D3CB00C01A5241830877
:1027A0008B4201D38B00C01A524143088B4201D3A4
:1027B0004B00C01A5241411A00D201465241104604
:1027C0007047FFE701B5002000F0F0F802BDC046F9
:1027D0000029F7D076E7704703460B437FD40022E9
:1027E00043088B4274D303098B425FD3030A8B42A5
:1027F00044D3030B8B4228D3030C8B420DD3FF220F
:10280000090212BA030C8B4202D31212090265D0DC
:10281000030B8B4219D300E0090AC30B8B4201D38F
:10282000CB03C01A5241830B8B4201D38B03C01AD6
:102830005241430B8B4201D34B03C01A5241030B4D
:102840008B4201D30B03C01A5241C30A8B4201D3FE
:10285000CB02C01A5241830A8B4201D38B02C01AA9
:102860005241430A8B4201D34B02C01A5241030A20
:102870008B4201D30B02C01A5241CDD2C3098B4205
:1028800001D3CB01C01A524183098B4201D38B0182
:10289000C01A524143098B4201D34B01C01A524125
:1028A00003098B4201D30B01C01A5241C3088B426A
:1028B00001D3CB00C01A524183088B4201D38B0055
:1028C000C01A524143088B4201D34B00C01A5241F7
:1028D000411A00D201465241104670475DE0CA0FCE
:1028E00000D04942031000D34042534000229C468E
:1028F00003098B422DD3030A8B4212D3FC22890198
:1029000012BA030A8B420CD3890192118B4208D36D
:10291000890192118B4204D389013AD0921100E0CF
:102920008909C3098B4201D3CB01C01A52418309E3
:102930008B4201D38B01C01A524143098B4201D310
:102940004B01C01A524103098B4201D30B01C01A3B
:102950005241C3088B4201D3CB00C01A52418308B5
:102960008B4201D38B00C01A5241D9D243088B420B
:1029700001D34B00C01A5241411A00D201466346AE
:1029800052415B10104601D34042002B00D5494212
:10299000704763465B1000D3404201B5002000F051
:1029A00005F802BD0029F8D016E770477047C04609
:1029B00070B500260C4D0D4C641BA410A64209D125
:1029C000002600F05FF80A4D0A4C641BA410A642D2
:1029D00005D170BDB300EB5898470136EEE7B30060
:1029E000EB5898470136F2E7902A0000902A000041
:1029F000902A0000942A000001000000020000005C
:102A0000040000000800000000100000002000008A
:102A100000400000008000000000010000000200F3
:102A200000000400000008000D0E00005E0006001B
:102A3000FC010020000000000D0E000066200000D8
:102A40006220000062200000C4200000C4200000BA
:102A50007A2000006C20000080200000B2200000DE
:102A60004C2100002C2100002C210000B821000086
:102A70003E2100005A2100003021000068210000A2
:102A8000A8210000F8B5C046F8BC08BC9E467047B7
:102A9000B5000000F8B5C046F8BC08BC9E467047BB
:042AA0008D000000A5
:042AA400010100002C
:04000003000025F5DF
:00000001FF
